:1006C900100A3F065B4F666D7D077F6F777C395E49
:1006D9007971031B000000011F00011A00010900C4
:0306E90001080104
:10075200AE071FEE600B007E027DEFDDFEDEFC8049
:01076200EFA7
:010763002273
:060475008B278A2889296B
:10047B00E4FCECFF7E00C39404748094805069EC20
:10048B0014601014601714601E24037022D290C2E3
:10049B00918004C290D291C292C2938012C290C238
:1004AB0091D292C2938008C290C291C292D293EF22
:1004BB0064014E7018E51A6014AB27AA28A9298C81
:1004CB00827583001206F64480F5808010AB27AA54
:1004DB0028A9298C827583001206F6F5807F0112FC
:0804EB000752E4F5800C808A41
:0104F30022E6
:100648001206898F1FEF64017010051AC3E51A940A
:1006580005748094804003E4F51AAF1A7E00C3EF56
:100668009403748094805004E4F50922EF64034EE7
:1006780070028006E51A640470067509011201DA31
:01068800224F
:1002C40012035CE51A700F850B1B85111C85121D2A
:1002D400850A1EFB807AE51A64017038E52375F0FF
:1002E4000A84240AF8E6F51BE52375F00A84740AE7
:1002F40025F0F8E6F51CE52475F00A84240AF8E6EE
:10030400F51DE52475F00A84740A25F0F8E6F51E57
:100314007B00803CE51A6402703DE52175F00A8497
:10032400240AF8E6F51BE52175F00A84740A25F021
:10033400F8E6F51CE52275F00A84240AF8E6F51DB2
:10034400E52275F00A84740A25F0F8E6F51E7B00B0
:080354007A00791B12047522E6
:10002600AF1F7E00EF640270100508C3E508940553
:10003600748094804003750801EF64034E600302E8
:1000460000F474202508F806D3E521940C748094F6
:10005600804003752101AF21EF6401601EEF640348
:100066006019EF64056014EF6407600FEF640860C1
:100076000AEF640A6005EF640C700DD3E522941F45
:1000860074809480404C8047AF21EF6404600FEF8A
:100096006406600AEF64096005EF640B700DD3E532
:1000A60022941E7480948040298024E52164027085
:1000B60021E5205403700DD3E522941D74809480AD
:1000C6004010800BD3E522941C7480948040037505
:1000D6002201D3E5239417748094804003E4F5232A
:1000E600D3E524943B748094804003E4F524E51F13
:1000F600640460030201D974202508F816C3E521BB
:10010600940174809480500375210CAF21EF640133
:10011600601EEF64036019EF64056014EF64076006
:100126000FEF6408600AEF640A6005EF640C701B49
:10013600C3E522940174809480500375221FD3E591
:1001460022941F7480948040768071AF21EF6404FE
:10015600600FEF6406600AEF64096005EF640B70D8
:100166001BC3E522940174809480500375221ED32C
:10017600E522941E7480948040458040E521640207
:10018600703DE5205403701BC3E5229401748094EE
:1001960080500375221DD3E522941D7480948040FF
:1001A6001E8019C3E5229401748094805003752241
:1001B6001CD3E522941C748094804003752201C3ED
:1001C600748094805003752317C374809480500301
:0401D60075243B222F
:1004F400E51A6403702D120026E52375F00A84249E
:100504000AF8E6F51BE52375F00A84740A25F0F869
:10051400E6F51CE52475F00A84240AF8E6F51DE5E1
:10052400248031E51A64047040120026E52175F038
:100534000A84240AF8E6F51BE52175F00A84740A96
:1005440025F0F8E6F51CE52275F00A84240AF8E69D
:10055400F51DE52275F00A84740A25F0F8E6F51E07
:0A0564007B007A00791B1204752257
:1000030012073C12077B1201DA120648E509146055
:0E001300080470F51202C480F01204F480EBB1
:030023000207725F
:0907720030980585991EC29832E9
:0906EC00072018060F0808320669
:05077B00C2B5C2B62268
:06056E0025F0FDEC3EFC4F
:060574008C278D28AB0767
:10057A00D2B5E4FDEDC394087480948050227E00C5
:10058A007401A805088005C333CE33CED8F9FFEB32
:10059A00F582EF558224FF92B4D2B6C2B60D80D44A
:1005AA00E4FDEDC394087480948050247E007401A5
:1005BA00A805088005C333CE33CED8F9FFE5275EF8
:1005CA00FEE5285F4E24FF92B4D2B6C2B60D80D2A1
:0205DA00C2B5A8
:0105DC0022FC
:0205DD00A9076C
:1005DF00E4F527F528430101D2B5FBFAAF037E00FE
:1005EF007401A807088005C333CE33CED8F9FFE9CD
:1005FF00FDEF5D24FF92B4C2B6D2B60BBB00010A69
:10060F00EB64084A70D6C2B4E4FAFBD2B6C2B63075
:10061F00B417AF037E007401A807088005C333CE5B
:10062F0033CED8F94228EE42270BBB00010AEB6408
:08063F00084A70D7C2B5AF28CC
:010647002290
:1001DA00E4FDFC7F8E120574E52075F00A8475F043
:1001EA0010A4FFAEF0E52075F00A84EF7F8C1205AB
:1001FA006EE52175F00A8475F010A4FFAEF0E521D2
:10020A0075F00A847C00EF7F8812056EE52275F08E
:10021A000A8475F010A4FFAEF0E52275F00A847C1A
:10022A0000EF25F0FDEC3EFC7F86120574E5237590
:10023A00F00A8475F010A4FFAEF0E52375F00A8485
:10024A007C00EF25F0FDEC3EFC7F84120574E5246A
:10025A0075F00A8475F010A4FFAEF0E52475F00A73
:10026A00847C00EF25F0FDEC3EFC7F82120574E5EC
:10027A002575F00A8475F010A4FFAEF0E52575F037
:10028A000A847C00EF25F0FDEC3EFC7F80120574A9
:10029A00E52675F00A8475F010A4FFAEF0E5267520
:1002AA00F00A847C00EF25F0FDEC3EFC7F8A120503
:0A02BA00747D807C007F8E020574C5
:10035C007F8C1205DDEFC4540F75F00AA4FEEF5428
:10036C000F2EF5207F881205DDEFC4540F75F00AAF
:10037C00A4FEEF540F2EF5217F861205DDEFC45439
:10038C000F75F00AA4FEEF540F2EF5227F84120590
:10039C00DDEFC4540F75F00AA4FEEF540F2EF523B5
:1003AC007F821205DDEFC4540F75F00AA4FEEF54E2
:1003BC000F2EF5247F801205DDEFC4540F75F00A63
:1003CC00A4FEEF540F2EF5257F8A1205DDEFC454E1
:0C03DC000F75F00AA4FEEF540F2EF5265A
:0103E80022F2
:040723007F147E00C1
:10072700EF1FAC0670011E4C600A7D027CEFDCFEF9
:04073700DDFC80EC79
:01073B00229B
:10068900E4FB20940E7F14FE1207273094FD120715
:10069900237B0120950B1207233095FD1207237B3D
:1006A9000220960B1207233096FD1207237B0320A5
:0F06B900970B1207233097FD1207237B04AF0323
:0106C800220F
:10073C00759850758920758780758DFA858D8BD24B
:06074C00ACD2AFD28E22F8
:0E076400C2ACC2998F993099FDC299D2AC22D5
:030000000203E90F
:0C03E900787FE4F6D8FD7581290204300D
:1006F600BB010CE58229F582E5833AF583E02250B9
:1007060006E92582F8E622BBFE06E92582F8E22202
:0D071600E58229F582E5833AF583E493221C
:1003F500020003E493A3F8E493A34003F68001F21B
:1004050008DFF48029E493A3F85407240CC8C33308
:10041500C4540F4420C8834004F456800146F6DFD7
:10042500E4800B01020408102040809006C9E47E98
:10043500019360BCA3FF543F30E509541FFEE493CC
:10044500A360010ECF54C025E060A840B8E493A393
:10045500FAE493A3F8E493A3C8C582C8CAC583CABE
:10046500F0A3C8C582C8CAC583CADFE9DEE780BE76
:0106F5000004
:00000001FF
