:10012E000A0C3F065B4F666D7DFF7F6F0408767984
:02013E00383F48
:10011900EF1FAC0670011E4C600A7D027CEFDCFE0D
:04012900DDFC80EC8D
:01012D0022AF
:10008F00EF14B4080050549000A475F003A4C58376
:10009F0025F0C583730200E40200DC0200D40200E5
:1000AF00CC0200C80200C40200C00200BCD2A4806F
:1000BF000ED2A48012D2A48016D2A4801AC2A4D2C7
:1000CF00A3D2A28016C2A4D2A3C2A2800EC2A4C27F
:1000DF00A3D2A28006C2A4C2A3C2A2740C2DF8E6BA
:0D00EF00F5807F017E00120119E4F58022EA
:1000FC007D047C007F0112008F7D097C007F05123E
:0D010C00008F7D067C007F0312008F80E3D2
:03000000020003F8
:0C000300787FE4F6D8FD75811502004AF4
:10000F000200FCE493A3F8E493A34003F68001F20B
:10001F0008DFF48029E493A3F85407240CC8C333F2
:10002F00C4540F4420C8834004F456800146F6DFC1
:10003F00E4800B010204081020408090012EE47E22
:10004F00019360BCA3FF543F30E509541FFEE493B6
:10005F00A360010ECF54C025E060A840B8E493A37D
:10006F00FAE493A3F8E493A3C8C582C8CAC583CAA8
:10007F00F0A3C8C582C8CAC583CADFE9DEE780BE60
:0101400000BE
:00000001FF
