:030000000200CB30
:0C00CB00787FE4F6D8FD75814002011238
:0601A8000121000122000C
:10000300E4FEE4FDED1460101460162402701CEE8F
:1000130075F003A424248010EE75F003A424238038
:1000230007EE75F003A42425F8E6FFEF339207EFFC
:10003300A2E69206A2E59205A2E49204A2E3920349
:10004300A2E29202A2E19201139200C2903007044D
:10005300D2908002C290D290C290300604D2908097
:1000630002C290D290C290300504D2908002C29016
:10007300D290C290300404D2908002C290D290C237
:1000830090300304D2908002C290D290C29030028A
:1000930004D2908002C290D290C290300104D290D8
:1000A3008002C290D290C290300004D2908002C2EB
:1000B30090D290C2900DED640360030200070EEE30
:0700C300640A60030200055E
:0100CA002213
:100184000521E52124CE600B1460042432700BC2D7
:10019400908007C2AF120003D2AFE52175F03C8412
:0301A40085F021C2
:0101A7002235
:100157000522E522643C7022FFE4FEEF75F003BE42
:100167000109A424232EF876288007A424232EF837
:0D017700E4F60EBE03E50FBF0ADF020184AF
:0501AF0012015780FB66
:1000D7000201AFE493A3F8E493A34003F68001F28F
:1000E70008DFF48029E493A3F85407240CC8C3332A
:1000F700C4540F4420C8834004F456800146F6DFF9
:10010700E4800B01020408102040809001A8E47EDF
:10011700019360BCA3FF543F30E509541FFEE493ED
:10012700A360010ECF54C025E060A840B8E493A3B4
:10013700FAE493A3F8E493A3C8C582C8CAC583CADF
:10014700F0A3C8C582C8CAC583CADFE9DEE780BE97
:0101AE000050
:00000001FF
