:030000000205BF37
:0C05BF00787FE4F6D8FD7581230200036C
:10047E0057656C636F6D6520746F0043616C6375B7
:10048E006C61746F722100303020202020202020DB
:10049E00202020002020202020202020202020206E
:1004AE000020202020202020002F0078002D002B5F
:0E04BE0000202020202020004552524F5200E6
:0A053D00C2A18F80D2A27F017E00D0
:10054700E4FDFCC3ED9FEC9E5015E4FBFA0BBB00EA
:0F055700010ABA04F8BBFBF50DBD00010C80E4EE
:010566002272
:0805CB00C2A012053DC2A222EC
:0805D300D2A012053DC2A222D4
:1005AB007F381205CB7F0C1205CB7F061205CB7F54
:0405BB00010205CB69
:10058E008F20A905EF64017004E9148009E5206449
:0D059E00027009E9243F4480FF1205CB22C2
:080567008E208F218C228D23D0
:10056F007F017E00E4FBEBC39523E5226480F874E2
:0E057F008098500AAC20AD211203F10B80E8E9
:01058D00224B
:0404CC008A1C8B1DDE
:1004D00012058E851E1FAF1F7E00D3EF940074801F
:1004E0009480402CEF24FFFDEE34FFFC7F0A1205C0
:1004F00067AC1CAD1DCFCDCFCECCCE1204037C009B
:100500007D0A120403ED2430FF1205D3151F80C6A7
:0105100022C8
:060511007BFF7D017F016C
:060517008B1A8A1B891CEF
:10051D0012058EE4F51DAB1AAA1BA91C851D82754B
:0F052D0083001203C4FF60071205D3051D80E78A
:01053C00229C
:1002C200E4F51AF51B7590F0AF90F50F8F105310EF
:1002D200F0F50FE51064F0450F70030203BF7F14C1
:1002E2007E00120547E51064F0450F70030203BF5C
:1002F20075900FE590540F4210850F11851012E58D
:100302001160030203BFE51212045803B97703997F
:100312007B03797D03597E03B1B70391BB0371BDA2
:100322000351BE03A9D70389DB0369DD0349DE0359
:10033200A1E70381EB0361ED0341EE000003BF750A
:100342001A00751B088076751A00751B09806E7578
:100352001A00751B0A8066751A00751B0B805E7584
:100362001A00751B058056751A00751B06804E759E
:100372001A00751B078046751A00751B0C803E75A6
:100382001A00751B028036751A00751B03802E75C4
:100392001A00751B048026751A00751B0D801E75C8
:1003A2001A00751B0E8016751A00751B01800E75DA
:1003B2001A00751B0F8006751A00751B10AE1AAF56
:0103C2001B1F
:0103C3002217
:100003001205AB1202C28E0A8F0BE50B450A60F391
:10001300E519703BE50B640E450A70E77A04797EB7
:100023001205117BFF7A0479897D017F021205177E
:100033007FC87E001205477A0479951205117BFF6C
:100043007A0479A27D017F02120517051980B4D3C2
:10005300E50B940AE50A94005043C3E50E9402E5C8
:100063000D9400502EAE13AF147C007D0A1203F1E1
:100073008E138F14E50B24FFFFE50A34FFFE1204F1
:1000830003ED2514F514EC3513F513050EE50E7089
:1000930002050D751E02AB14AA13020205D3E50B6C
:1000A300940AE50A9400500302013CE50B640F45F2
:1000B3000A700302013C851315851416E4F50DF54A
:1000C3000EF513F5147BFF7A0479AF120513E50AD5
:1000D3006003020006E50B24F4601D14602614601F
:1000E3002F24FE604824056003020006750C2F7B55
:1000F300FF7A0479B702027E750C787BFF7A047964
:10010300B902027E750C2D7BFF7A0479BB02027E55
:10011300E4F50DF50EF513F514F515F516F517F5CC
:1001230018F508F509751E02FBFA020205750C2B7A
:100133007BFF7A0479BD02027EE50B640F450A60FA
:10014300030200068513178514187BFF7A0479BF11
:10015300120513E50C642B7028E5162518F509E53F
:10016300153517F508C3E5099464E50864809480A0
:100173004005751E038003751E02AB09AA0802021F
:1001830005E50C642D704FC3E5169518F509E515C3
:100193009517F508C3648094804009751E02AB0966
:1001A300AA08805EC3E49509F509E49508F5087B80
:1001B300FF7A0479BB120513C3E509940AE50864C1
:1001C3008094804005751E028003751E01AB09AA49
:1001D300087D020202A9E50C64786003020269AC9F
:1001E30017AD18AE15AF161203F18E088F09C3E5CC
:1001F3000994E8E50864809483400C751E04AB09F8
:10020300AA087D010202A9D374649509E5086480F4
:10021300F87480987E0050047F0180027F00C3EF52
:1002230094E8EE64809483500B751E03AB09AA080F
:100233007D018072D3740A9509E5086480F874809F
:10024300987E0050047F0180027F00C3EF9464EE28
:10025300648094805005751E028003751E01AB09EE
:10026300AA087D018040E50C642F6003020006E5C7
:10027300184517700C7BFF7A0479C6120513020028
:1002830006AC17AD18AE15AF161204038E088F090E
:10029300C3E509940AE508648094804011751E0241
:1002A300AB09AA087D017F011204CC020006751E6A
:0F02B30001AB09AA087D017F011204CC020006ED
:1003C400BB010CE58229F582E5833AF583E02250EE
:1003D40006E92582F8E622BBFE06E92582F8E22238
:0D03E400E58229F582E5833AF583E4932252
:1003F100EF8DF0A4A8F0CF8CF0A428CE8DF0A42E20
:02040100FE22D9
:10040300BC000BBE0029EF8DF084FFADF022E4CCDD
:10041300F875F008EF2FFFEE33FEEC33FCEE9DECA6
:10042300984005FCEE9DFE0FD5F0E9E4CEFD22EDEC
:10043300F8F5F0EE8420D21CFEADF075F008EF2F36
:10044300FFED33FD4007985006D5F0F222C398FD27
:050453000FD5F0EA22C4
:10045800D083D082F8E4937012740193700DA3A333
:1004680093F8740193F5828883E473740293686047
:06047800EFA3A3A380DF47
:00000001FF
