:1009770020200020202D20202D20200020203A207C
:10098700203A20200054656D3A2020430048756DB9
:050997003A20202500BC
:040AE400020D0000FF
:100AA200AE071FEE600B007E027DEFDDFEDEFC80F6
:010AB200EF54
:010AB3002220
:10072E0012053B12053BE51AFB7A007515027D0199
:10073E007F0112099CE51BFB7A007515027D047F73
:10074E000112099CE51CFB7A007515027D077F01DD
:10075E0012099CE51DFB7A007515027D097F0112B9
:10076E00099CE51EFB7A007515027D0C7F011209AE
:10077E009CE51FFB7A007515027D0F7F0102099C17
:10002600AF107E00EF6402700B050AE50A75F00654
:100036008485F00AEF64034E600302010B741A25EF
:100046000AF806D3E51A9463748094804003E4F5B5
:100056001AD3E51B940C748094804003751B01AF82
:100066001BEF6401601EEF64036019EF6405601402
:10007600EF6407600FEF6408600AEF640A6005EF3B
:10008600640C700DD3E51C941F74809480404C80E2
:1000960047AF1BEF6404600FEF6406600AEF640964
:1000A6006005EF640B700DD3E51C941E748094807C
:1000B60040298024E51B64027021E51A5403700D63
:1000C600D3E51C941D748094804010800BD3E51CEE
:1000D600941C748094804003751C01D3E51D94170D
:1000E600748094804003E4F51DD3E51E943B748030
:1000F60094804003E4F51ED3E51F943B74809480FE
:100106004003E4F51FE51064046003020204741A58
:10011600250AF816C3748094805003751A63C3E5E4
:100126001B9401748094805003751B0CAF1BEF6405
:1001360001601EEF64036019EF64056014EF640745
:10014600600FEF6408600AEF640A6005EF640C70E4
:100156001BC3E51C9401748094805003751C1FD347
:10016600E51C941F7480948040768071AF1BEF6409
:1001760004600FEF6406600AEF64096005EF640B24
:10018600701BC3E51C9401748094805003751C1E7B
:10019600D3E51C941E7480948040458040E51B6422
:1001A60002703DE51A5403701BC3E51C940174806C
:1001B60094805003751C1DD3E51C941D7480948097
:1001C600401E8019C3E51C94017480948050037509
:1001D6001C1CD3E51C941C748094804003751C0180
:1001E600C3748094805003751D17C3748094805027
:1001F60003751E3BC3748094805003751F3BE50A4C
:100206007015E50C6401700F7BFF7A0979777D0123
:100216007F011209E4800FE51AFB7A007515027D4D
:10022600017F0112099CE50A64017015E50C640161
:10023600700F7BFF7A0979777D047F011209E480CC
:100246000FE51BFB7A007515027D047F0112099CE0
:10025600E50A64027015E50C6401700F7BFF7A09EC
:1002660079777D077F011209E4800FE51CFB7A0090
:100276007515027D077F0112099CE50A6403701556
:10028600E50C6401700F7BFF7A0979777D097F01A0
:100296001209E4800FE51DFB7A007515027D097FC2
:1002A6000112099CE50A64047015E50C6401700FDF
:1002B6007BFF7A0979777D0C7F011209E4800FE5CF
:1002C6001EFB7A007515027D0C7F0112099CE50A5A
:1002D60064057013E50C6401700D7BFF7A0979776C
:1002E6007D0F7F010209E4E51FFB7A007515027D8B
:0702F6000F7F0112099C2299
:1003E700120A43120A8E120B0F120A77120B1C7F86
:1003F700E8120AA27BFF7A09797A7D017F01120947
:10040700E47BFF7A0979837D097F011209E47BFF89
:100417007A09798C7D017F021209E47BFF7A0979D9
:10042700947D097F021209E41202FDC28C12078E25
:10043700D28CE532FB7A007515027D057F02120921
:100447009CE533FB7A007515027D0D7F0212099C2E
:10045700C3E533944D74809480400AD2B2750D0081
:10046700750E018007C2B2E4F50DF50E1208C98FAB
:1004770010EF64017018AF0BFEEF7007750B01F5F5
:100487000A800BEF64014E7005F50B1202FDE50BB8
:1004970014600804709512072E8090120026808B36
:030023000208824E
:10088200C0E0C0F0C083C082C0D075D000C000C03C
:1008920001C002C003C004C005C006C00730980CE6
:1008A20085990FC298AF99120003C298D007D0065B
:1008B200D005D004D003D002D001D000D0D0D08255
:0708C200D083D0F0D0E0323A
:03000B0002000EE2
:02000E00C0E050
:10001000758A18758CFCE50E6401450D7002B2A15D
:03002000D0E032FB
:090AE800071A1807071232320642
:050B1C00C2B5C2B622C3
:0606540025F0FDEC3EFC68
:06065A008C118D12AB07AC
:10066000D2B5E4FDEDC394087480948050227E00DE
:100670007401A805088005C333CE33CED8F9FFEB4B
:10068000F582EF558224FF92B4D2B6C2B60D80D463
:10069000E4FDEDC394087480948050247E007401BE
:1006A000A805088005C333CE33CED8F9FFE5115E27
:1006B000FEE5125F4E24FF92B4D2B6C2B60D80D2D0
:0206C000C2B5C1
:0106C2002215
:0206C300A90785
:1006C500E4F511F512430101D2B5FBFAAF037E0043
:1006D5007401A807088005C333CE33CED8F9FFE9E6
:1006E500FDEF5D24FF92B4C2B6D2B60BBB00010A82
:1006F500EB64084A70D6C2B4E4FAFBD2B6C2B6308F
:10070500B417AF037E007401A807088005C333CE74
:1007150033CED8F94212EE42110BBB00010AEB644D
:08072500084A70D7C2B5AF12FB
:01072D0022A9
:1002FD00E4FDFC7F8E12065AE51A75F00A8475F03E
:10030D0010A4FFAEF0E51A75F00A84EF7F8C12068B
:10031D0054E51B75F00A8475F010A4FFAEF0E51BD3
:10032D0075F00A847C00EF7F88120654E51C75F089
:10033D000A8475F010A4FFAEF0E51C75F00A847CFC
:10034D0000EF25F0FDEC3EFC7F8612065AE51D758B
:10035D00F00A8475F010A4FFAEF0E51D75F00A8467
:10036D007C00EF25F0FDEC3EFC7F8412065AE51E65
:10037D0075F00A8475F010A4FFAEF0E51E75F00A55
:10038D00847C00EF25F0FDEC3EFC7F8212065AE5E1
:10039D001F75F00A8475F010A4FFAEF0E51F75F01F
:1003AD000A847C00EF25F0FDEC3EFC7F8012065A9E
:1003BD00E52075F00A8475F010A4FFAEF0E5207508
:1003CD00F00A847C00EF25F0FDEC3EFC7F8A1206DE
:0A03DD005A7D807C007F8E02065AD4
:10053B007F8C1206C3EFC4540F75F00AA4FEEF5460
:10054B000F2EF51A7F881206C3EFC4540F75F00AED
:10055B00A4FEEF540F2EF51B7F861206C3EFC45477
:10056B000F75F00AA4FEEF540F2EF51C7F841206B4
:10057B00C3EFC4540F75F00AA4FEEF540F2EF51DF4
:10058B007F821206C3EFC4540F75F00AA4FEEF541A
:10059B000F2EF51E7F801206C3EFC4540F75F00AA1
:1005AB00A4FEEF540F2EF51F7F8A1206C3EFC4541F
:0C05BB000F75F00AA4FEEF540F2EF5207F
:0105C7002211
:100A430075985043878053890F438920758BF475BC
:0B0A53008DF4C2ABD28ED2ACD2AF2229
:080003008F993099FDC299228A
:040A5E007F147E0083
:100A6200EF1FAC0670011E4C600A7D027CEFDCFEBB
:040A7200DDFC80EC3B
:010A7600225D
:1008C900E4FB20940E7F14FE120A623094FD120A92
:1008D9005E7B0120950B120A5E3095FD120A5E7B44
:1008E9000220960B120A5E3096FD120A5E7B0320E7
:0F08F900970B120A5E3097FD120A5E7B04AF0365
:0109080022CC
:060AC600C2A58F80D2A73B
:080ACC007F027EEFDEFEDFFC7D
:010AD40022FF
:0A0AF200C2A6120AC6C2A7020ACC6F
:100A0700CFCDCFCECCCE1204E67C007D0A1204E611
:040A1700ED2430FF9B
:0A0A1B00D2A6120AC6C2A7020ACC36
:100A2500AE07EEFB7A0064017004ED148009EB64F7
:0E0A3500024A7009ED243F4480FF120AF222AB
:100A8E007F38120AF27F0C120AF27F06120AF27FE8
:040A9E0001020AF255
:0A0AFC00AC03120A25AF04020A1B26
:0609E4008B118A12891339
:1009EA00120A25E4FDAB11AA12A9138D82758300A0
:0C09FA001204A7FF6006120A1B0D80E922
:010A060022CD
:0A094600EF24FFFDEE34FFFC7F0AF2
:080950008E168F178C188D190B
:100958007F017E00E4FBEBC39519E5186480F87409
:0E0968008098500AAC16AD171204D40B80E82C
:01097600225E
:04099C008A138B141B
:1009A000120A25AA15EAFF7E00D394007480948071
:0F09B000400D120946AC13AD14120A071A80E667
:0109BF002215
:040838008B828A83A2
:10083C00120A25C3E58364809480400D7F2B120A35
:10084C001B85832685822780107F2D120A1BC3E40B
:10085C009582F527E49583F526AA25EAFF7E00D339
:10086C00940074809480400D120946AC26AD27127A
:05087C000A071A80E6E6
:010881002254
:0407ED008A2A8B2B9E
:1007F100120A25AA2CEAD39400748094804037EA27
:1008010024FFFDE434FFFC7F107E00120950AC2A66
:10081100AD2BCFCDCFCECCCE1204E6EF540FFEC31D
:10082100940A74809480EE5004243080022437FFAF
:06083100120A1B1A80BF31
:01083700229E
:040909008A2F8B3076
:10090D00120A25AA31EAFF7E00D3940074809480E8
:10091D004026EF24FFFDEE34FFFC7F02120950ACA0
:10092D002FAD30CFCDCFCECCCE1204E6EF54012477
:08093D0030FF120A1B1A80CDE5
:01094500228F
:100A77005389F0438901758A18758CFCC28DD28C15
:070A8700D2A9D2AFC2B922CF
:100AB400AE071FEE600B007E027DEFDDFEDEFC80E4
:010AC400EF42
:010AC500220E
:070B0F00D2B77FE8020AB42F
:040B21007F02DFFE72
:010B250022AD
:040B26007F0BDFFE64
:010B2A0022A8
:050B1600007F0FDFFE6F
:010B1B0022B7
:040B2B007F22DFFE48
:010B2F0022A3
:080B06007F367EC7DEFEDFFC36
:010B0E0022C4
:0F0AD500D2B7120B21C2B7120B06D2B7020B26F3
:1009C000E4FEFDEDC3940874809480501430B7FDAC
:1009D000120B16EE25E0FE30B7010E20B7FD0D809C
:0309E000E2AF067D
:0109E30022F1
:10078E00120AD520B75830B7FD20B7FD1209C08F19
:10079E00111209C0A9071209C0AC071209C0AB0794
:1007AE001209C08F16120B26120B26E9FFE5112F28
:1007BE00FFE433FEEC7583002FFFE5833EFEEB2F47
:1007CE00FFE5833EFEE516B5070EE583B506098502
:0E07DE00111289138C148B1585123385143279
:0107EC0022EA
:030000000205C82E
:0C05C800787FE4F6D8FD75813302060F41
:1004A700BB010CE58229F582E5833AF583E022500A
:1004B70006E92582F8E622BBFE06E92582F8E22254
:0D04C700E58229F582E5833AF583E493226E
:1004D400EF8DF0A4A8F0CF8CF0A428CE8DF0A42E3C
:0204E400FE22F6
:1004E600BC000BBE0029EF8DF084FFADF022E4CCFA
:1004F600F875F008EF2FFFEE33FEEC33FCEE9DECC3
:10050600984005FCEE9DFE0FD5F0E9E4CEFD22ED08
:10051600F8F5F0EE8420D21CFEADF075F008EF2F52
:10052600FFED33FD4007985006D5F0F222C398FD43
:050536000FD5F0EA22E0
:1005D4000203E7E493A3F8E493A34003F68001F253
:1005E40008DFF48029E493A3F85407240CC8C33328
:1005F400C4540F4420C8834004F456800146F6DFF7
:10060400E4800B0102040810204080900AE4E47E98
:10061400019360BCA3FF543F30E509541FFEE493EB
:10062400A360010ECF54C025E060A840B8E493A3B2
:10063400FAE493A3F8E493A3C8C582C8CAC583CADD
:10064400F0A3C8C582C8CAC583CADFE9DEE780BE95
:010AF1000004
:00000001FF
