:1000F400E4FFEFC3941E748094805030E4FEEEFD60
:10010400C39403748094805020ED6401700DEF75E6
:10011400F003A424092EF87632800BEF75F003A4C3
:0C01240024092EF8E4F60E80D50F80C6EA
:0101300022AC
:080155001200F412013180F8E0
:03015D0001080096
:10008F00E4FFEFC3941E748094805058E4FEEEC3D7
:10009F009403748094805049EE14601014601624F9
:1000AF0002701CEF75F003A4240A8010EF75F003A3
:1000BF00A424098007EF75F003A4240BF8E6F9E4F4
:1000CF00FDEDC39408748094805011D2B7E9339238
:1000DF00B70000E925E0F9C2B70D80E5C2B70E8081
:0400EF00AD0F809E33
:0100F30022EA
:100131000508E50824CE600B1460042432700BC25C
:10014100B78007C2AF12008FD2AFE50875F03C84CB
:0301510085F0082E
:010154002288
:03000000020003F8
:0C000300787FE4F6D8FD75816202004AA7
:10000F00020155E493A3F8E493A34003F68001F2B1
:10001F0008DFF48029E493A3F85407240CC8C333F2
:10002F00C4540F4420C8834004F456800146F6DFC1
:10003F00E4800B010204081020408090015DE47EF3
:10004F00019360BCA3FF543F30E509541FFEE493B6
:10005F00A360010ECF54C025E060A840B8E493A37D
:10006F00FAE493A3F8E493A3C8C582C8CAC583CAA8
:10007F00F0A3C8C582C8CAC583CADFE9DEE780BE60
:01016000009E
:00000001FF
