:030000000200916A
:0C009100787FE4F6D8FD75813F0200D8AE
:10011D00E4FFE4FEEF75F003BE0109A424222EF8DE
:10012D0076328007A424222EF8E4F60EBE03E50FE6
:03013D00BF0ADF17
:01014000229C
:0801650012011D12014180F896
:03016D000121006D
:10000300E4FFE4FEEF75F003A424222EF8E6FD33AB
:100013009207EDA2E69206A2E59205A2E49204A25B
:10002300E39203A2E29202A2E19201139200D28030
:10003300A2079280C2800000D280A2069280C28072
:100043000000D280A2059280C2800000D280A20468
:100053009280C2800000D280A2039280C2800000FE
:10006300D280A2029280C2800000D280A20192803C
:10007300C2800000D280A2009280C28000000EEEF7
:0D008300640370800FEF640A600302000543
:01009000224D
:100141000521E52124CE600B1460042432700BC21A
:10015100808007C2AF120003D2AFE52175F03C8465
:0301610085F02105
:010164002278
:10009D00020165E493A3F8E493A34003F68001F213
:1000AD0008DFF48029E493A3F85407240CC8C33364
:1000BD00C4540F4420C8834004F456800146F6DF33
:1000CD00E4800B010204081020408090016DE47E55
:1000DD00019360BCA3FF543F30E509541FFEE49328
:1000ED00A360010ECF54C025E060A840B8E493A3EF
:1000FD00FAE493A3F8E493A3C8C582C8CAC583CA1A
:10010D00F0A3C8C582C8CAC583CADFE9DEE780BED1
:01017000008E
:00000001FF
