:0C0155000A083F067F7F7F6D7DFF7F6FF3
:0B0135007D047C0012008F7F2C7E01F7
:10014000EF1FAC0670011E4C600A7D027CEFDCFEE6
:04015000DDFC80EC66
:010154002288
:10008F00EF14B4080050549000A475F003A4C58376
:10009F0025F0C583730200E40200DC0200C80200F1
:1000AF00C40200D40200CC0200C00200BCD2A48063
:1000BF000ED2A48012D2A48016D2A4801AC2A4D2C7
:1000CF00A3D2A28016C2A4D2A3C2A2800EC2A4C27F
:1000DF00A3D2A28006C2A4C2A3C2A274082DF8E6BE
:0300EF00F5802277
:1000F2007F011201357F021201357D047C007F03EE
:100102001201397D047C007F041201397D047C00D8
:100112007F051201397D047C007F061201397D04BE
:100122007C007F071201397D047C007F08120139AF
:030132000200F2D6
:03000000020003F8
:0C000300787FE4F6D8FD75811102004AF8
:10000F000200F2E493A3F8E493A34003F68001F215
:10001F0008DFF48029E493A3F85407240CC8C333F2
:10002F00C4540F4420C8834004F456800146F6DFC1
:10003F00E4800B0102040810204080900155E47EFB
:10004F00019360BCA3FF543F30E509541FFEE493B6
:10005F00A360010ECF54C025E060A840B8E493A37D
:10006F00FAE493A3F8E493A3C8C582C8CAC583CAA8
:10007F00F0A3C8C582C8CAC583CADFE9DEE780BE60
:01016100009D
:00000001FF
