:1009380020004F55545055543A00202020202020A4
:0F094800002B002D002A002F004552524F520065
:100993000238000002300000023600000216000098
:0809A300021400000212000022
:0C05FA00E53525E02424F8A60608A60735
:100606007BFF7A0979387D107F01120915E53525BA
:10061600E02424F8E6FA08E6FBD39409EA64809419
:1006260080500A753E017D087F021208F1E53525E6
:10063600E02424F8E6FA08E6FBD39409EA648094F9
:10064600804015D3EB9463EA64809480500A753E2B
:10065600027D087F021208F1E53525E02424F8E63C
:10066600FA08E6FBD39463EA648094804015D3EBE2
:1006760094E7EA64809483500A753E037D087F02FE
:040686001208F12243
:10071600D3E52F9409E52E64809480500E753E0132
:10072600AB2FAA2E7D017F011208F1D3E52F940984
:10073600E52E64809480401BD3E52F9463E52E64F8
:10074600809480500E753E02AB2FAA2E7D017F014C
:100756001208F1D3E52F9463E52E64809480401B44
:10076600D3E52F94E7E52E64809483500E753E03FF
:0C077600AB2FAA2E7D017F011208F1229A
:10078200D3E52F9409E52E64809480500E753E01C6
:10079200AB2FAA2E7D047F011208F1D3E52F940915
:1007A200E52E64809480401BD3E52F9463E52E648C
:1007B200809480500E753E02AB2FAA2E7D047F01DD
:1007C2001208F1D3E52F9463E52E64809480401BD8
:1007D200D3E52F94E7E52E64809483500E753E0393
:0C07E200AB2FAA2E7D047F011208F1222B
:100003001209C17BFF7A09793A7D017F0212091532
:100013001203A77518008F19E519451860F2D3E587
:1000230019940AE51864809480500302035D7512E5
:1000330000751301E53925E02424F8A62E08A62F20
:100043000539E53970020538E4F52EF52F7BFF7A83
:100053000979427D077F01120915E519640B4518DB
:10006300701C740D2537F8762B7BFF7A0979497D4F
:10007300037F011209150537E53770020536E519C7
:10008300640C4518701C740D2537F8762D7BFF7AA8
:1000930009794B7D037F011209150537E537700296
:1000A3000536E519640D4518701C740D2537F8766F
:1000B3002A7BFF7A09794D7D037F011209150537E4
:1000C300E53770020536E519640E4518701C740D8A
:1000D3002537F8762F7BFF7A09794F7D037F01124D
:1000E30009150537E53770020536E519640F45181C
:1000F300600302030EF532F533F534753501C3E5BC
:10010300359539E5386480F8E53464809840030216
:10011300023B740D2533F8E6FFB42F047E01800201
:100123007E00EFB42A047F0180027F00EF4E70034C
:10013300020228740D2533F8E6FFAE1574082EF875
:10014300A607AB35EB25E02424F8E6FC08E6FDE53D
:100153001725E0241AF8A60408A60574082EF8E665
:10016300642A704AAF35EF25E02422F8E6FC08E65E
:10017300FDEF25E02424F8E6FE08E6FF12055DAD59
:1001830017ED25E0241AF8A60608A607ED25E024B6
:100193001AF8E6FE08E6FFAD35ED25E02424F8A6BF
:1001A3000608A607ED25E02422F8E4F608F674080D
:1001B3002515F8E6642F7066EB25E02424F8E6FEA7
:1001C30008E64E700F7BFF7A0979517D087F021292
:1001D30009158027AF35EF25E02424F8E6FC08E66F
:1001E300FDEF25E02422F8E6FE08E6FF1205C4E54C
:1001F3001725E0241AF8A60608A607E51725E02424
:100203001AF8E6FE08E6FFAD35ED25E02424F8A64E
:100213000608A607ED25E02422F8E4F608F6740D97
:100223002533F8762B0533E533700205320535E5C2
:100233003570020534020101E4F532F533F5347506
:100243003501C3E5359539E5386480F8E5346480D4
:1002530098400302030E740D2533F8E6B42B1EAF4A
:1002630035EF25E02422F8E6FC08E6FDEF25E0243F
:1002730024F808ED26F618EC36F6120606740D255A
:1002830033F8E6B42D20AF35EF25E02424F8E6FC5F
:1002930008E6FDEF25E02422F8E6FE08E6C39DFF0D
:1002A300EE9CFE1205FA740D2533F8E6B42A22AD4E
:1002B30035ED25E02424F8C000E6FE08E6FFED2531
:1002C300E02422F8E6FC08E6FD12055DD0001206E4
:1002D30001740D2533F8E6B42F1EAF35EF25E02466
:1002E30024F8E6FC08E6FDEF25E02422F8E6FE0804
:1002F300E6FF1205C41205FA0533E5337002053231
:100303000535E53570020534020245E519641045EB
:10031300187047F50DF524F525F538F539F536F55B
:1003230037F534F535F532F533F516F517F514F5DC
:1003330015F512F513F5127BFF7A0979427D017FDA
:1003430001120915E4F52EF52FF52EF52F7BFF7A13
:100353000979427D087F02120915D3E519940AE54C
:1003630018648094804003020013AE2EAF2F7C00EC
:100373007D0A12055D8E2E8F2FAE18AF191205C49C
:10038300ED252FF52FEC352EF52EE51345127003D1
:10039300120716E5136401451260030200131207E6
:0403A30082020013BF
:1009AC00EF1FAC0670011E4C600A7D027CEFDCFE72
:0409BC00DDFC80ECF2
:0109C0002214
:0609D500C2A58F80D2A72D
:0809DB007F027EEFDEFEDFFC6F
:0109E30022F1
:0A09E400C2A61209D5C2A70209DB62
:10095700CFCDCFCECCCE12056F7C007D0A12056FAE
:04096700ED2430FF4C
:0A096B00D2A61209D5C2A70209DBCB
:10097500AE07EEFB7A0064017004ED148009EB64A8
:0E098500024A7009ED243F4480FF1209E4226B
:1009C1007F381209E47F0C1209E47F061209E47FE3
:0409D100010209E432
:0A09EE00AC03120975AF0402096B97
:060915008B3A8A3B893C8D
:10091B00120975E4FDAB3AAA3BA93C8D82758300A5
:0C092B00120530FF600612096B0D80E918
:01093700229D
:0A08C000EF24FFFDEE34FFFC7F0A79
:0808CA008E3F8F408C418D42EE
:1008D2007F017E00E4FBEBC39542E5416480F8743E
:0E08E2008098500AAC3FAD4012055D0B80E8D7
:0108F00022E5
:0408F1008A3C8B3D75
:1008F500120975AA3EEAFF7E00D3940074809480A5
:0F090500400D1208C0AC3CAD3D1209571A80E6F8
:0109140022C0
:040839008B828A83A1
:10083D00120975C3E58364809480400D7F2B1209E6
:10084D006B85834885824980107F2D12096BC3E427
:10085D009582F549E49583F548AA47EAFF7E00D3D2
:10086D00940074809480400D1208C0AC48AD4912BC
:05087D0009571A80E696
:010882002253
:0407EE008A4C8B4D59
:1007F200120975AA4EEAD39400748094804037EAB5
:1008020024FFFDE434FFFC7F107E001208CAAC4CCA
:10081200AD4DCFCDCFCECCCE12056FEF540FFEC370
:10082200940A74809480EE5004243080022437FFAE
:0608320012096B1A80BFE1
:01083800229D
:040883008A518B52B9
:10088700120975AA53EAFF7E00D3940074809480FE
:100897004026EF24FFFDEE34FFFC7F021208CAACAE
:1008A70051AD52CFCDCFCECCCE12056FEF54012430
:0808B70030FF12096B1A80CD1D
:0108BF002216
:1003A700E4F53A7590FFC2932097137F14FE120964
:1003B700AC3097FD7F147E001209AC753A01209688
:1003C700147F147E001209AC3096FD7F147E001254
:1003D70009AC753A052095147F147E001209AC30DC
:1003E70095FD7F147E001209AC753A092094147F9D
:1003F700147E001209AC3094FD7F147E001209AC04
:10040700753A0D7590FFC2922097147F147E0012E3
:1004170009AC3097FD7F147E001209AC753A0220B3
:1004270096147F147E001209AC3096FD7F147E006F
:100437001209AC753A062095147F147E001209AC98
:100447003095FD7F147E001209AC753A0A2094148A
:100457007F147E001209AC3094FD7F147E001209D0
:10046700AC753A0E7590FFC2912097147F147E00E9
:100477001209AC3097FD7F147E001209AC753A0360
:100487002096147F147E001209AC3096FD7F147EEF
:10049700001209AC753A072095147F147E001209E3
:1004A700AC3095FD7F147E001209AC753A0B209491
:1004B700147F147E001209AC3094FD7F147E001265
:1004C70009AC753A0F7590FFC2902097147F147E80
:1004D700001209AC3097FD7F147E001209AC753A03
:1004E700042096147F147E001209AC3096FD7F1409
:1004F7007E001209AC753A082095147F147E00120D
:1005070009AC3095FD7F147E001209AC753A0C20BA
:1005170094147F147E001209AC3094FD7F147E0082
:080527001209AC753A10AF3A5D
:01052F0022A9
:0300000002068A6B
:0C068A00787FE4F6D8FD7581530206D19C
:10053000BB010CE58229F582E5833AF583E0225080
:1005400006E92582F8E622BBFE06E92582F8E222CA
:0D055000E58229F582E5833AF583E49322E4
:10055D00EF8DF0A4A8F0CF8CF0A428CE8DF0A42EB2
:02056D00FE226C
:10056F00BC000BBE0029EF8DF084FFADF022E4CC70
:10057F00F875F008EF2FFFEE33FEEC33FCEE9DEC39
:10058F00984005FCEE9DFE0FD5F0E9E4CEFD22ED7F
:10059F00F8F5F0EE8420D21CFEADF075F008EF2FC9
:1005AF00FFED33FD4007985006D5F0F222C398FDBA
:0505BF000FD5F0EA2257
:1005C400C2D5EC30E709B2D5E4C39DFDE49CFCEE52
:1005D40030E715B2D5E4C39FFFE49EFE12056FC356
:1005E400E49DFDE49CFC800312056F30D507C3E451
:0605F4009FFFE49EFE22C1
:10069600020003E493A3F8E493A34003F68001F277
:1006A60008DFF48029E493A3F85407240CC8C33365
:1006B600C4540F4420C8834004F456800146F6DF34
:1006C600E4800B0102040810204080900993E47E28
:1006D600019360BCA3FF543F30E509541FFEE49329
:1006E600A360010ECF54C025E060A840B8E493A3F0
:1006F600FAE493A3F8E493A3C8C582C8CAC583CA1B
:10070600F0A3C8C582C8CAC583CADFE9DEE780BED2
:0109AB00004B
:00000001FF
