:0300000002000EED
:0C000E00787FE4F6D8FD758108020055EB
:0300C5000108002F
:1000B2005389F0438901758CEEE4F58AD2A9D2AF57
:0300C200D28C22BB
:050003001200B280FEB6
:03000B0002009A56
:04009A00C0E0C0D032
:0F009E00758CEE758A006308FFE50824FF9290C9
:0500AD00D0D0D0E032CC
:10001A00020003E493A3F8E493A34003F68001F2F9
:10002A0008DFF48029E493A3F85407240CC8C333E7
:10003A00C4540F4420C8834004F456800146F6DFB6
:10004A00E4800B01020408102040809000C5E47E81
:10005A00019360BCA3FF543F30E509541FFEE493AB
:10006A00A360010ECF54C025E060A840B8E493A372
:10007A00FAE493A3F8E493A3C8C582C8CAC583CA9D
:10008A00F0A3C8C582C8CAC583CADFE9DEE780BE55
:0100C8000037
:00000001FF
