:1008A700100A3F065B4F666D7D077F6F777C395E69
:1008B7007971031B000000011F00011A00010900E4
:0308C70001080124
:10099F00AE071FEE600B007E027DEFDDFEDEFC80FA
:0109AF00EF58
:0109B0002224
:060509008B448A4589467F
:10050F00E4FCECFF7E00C39404748094805069EC8B
:10051F0014601014601714601E24037022D290C24E
:10052F00918004C290D291C292C2938012C290C2A3
:10053F0091D292C2938008C290C291C292D293EF8D
:10054F0064014E7018E51A6014AB44AA45A9468C95
:10055F008275830012035C4480F5808010AB44AA3F
:10056F0045A9468C8275830012035CF5807F0112CA
:08057F00099FE4F5800C808A5D
:010587002251
:1007B8001207F98F1FEF64017010051AC3E51A9428
:1007C80005748094804003E4F51AAF1A7E00C3EFE5
:1007D8009403748094805004E4F50922EF64034E76
:1007E80070028006E51A640470067509011201DAC0
:0107F80022DE
:1002C4001203F0E51A700F850B1B85111C85121D96
:1002D400850A1EFB807AE51A64017038E52375F0FF
:1002E4000A84240AF8E6F51BE52375F00A84740AE7
:1002F40025F0F8E6F51CE52475F00A84240AF8E6EE
:10030400F51DE52475F00A84740A25F0F8E6F51E57
:100314007B00803CE51A6402703DE52175F00A8497
:10032400240AF8E6F51BE52175F00A84740A25F021
:10033400F8E6F51CE52275F00A84240AF8E6F51DB2
:10034400E52275F00A84740A25F0F8E6F51E7B00B0
:080354007A00791B1205092251
:10002600AF1F7E00EF640270100508C3E508940553
:10003600748094804003750801EF64034E600302E8
:1000460000F474202508F806D3E521940C748094F6
:10005600804003752101AF21EF6401601EEF640348
:100066006019EF64056014EF6407600FEF640860C1
:100076000AEF640A6005EF640C700DD3E522941F45
:1000860074809480404C8047AF21EF6404600FEF8A
:100096006406600AEF64096005EF640B700DD3E532
:1000A60022941E7480948040298024E52164027085
:1000B60021E5205403700DD3E522941D74809480AD
:1000C6004010800BD3E522941C7480948040037505
:1000D6002201D3E5239417748094804003E4F5232A
:1000E600D3E524943B748094804003E4F524E51F13
:1000F600640460030201D974202508F816C3E521BB
:10010600940174809480500375210CAF21EF640133
:10011600601EEF64036019EF64056014EF64076006
:100126000FEF6408600AEF640A6005EF640C701B49
:10013600C3E522940174809480500375221FD3E591
:1001460022941F7480948040768071AF21EF6404FE
:10015600600FEF6406600AEF64096005EF640B70D8
:100166001BC3E522940174809480500375221ED32C
:10017600E522941E7480948040458040E521640207
:10018600703DE5205403701BC3E5229401748094EE
:1001960080500375221DD3E522941D7480948040FF
:1001A6001E8019C3E5229401748094805003752241
:1001B6001CD3E522941C748094804003752201C3ED
:1001C600748094805003752317C374809480500301
:0401D60075243B222F
:10058800E51A6403702D120026E52375F00A842409
:100598000AF8E6F51BE52375F00A84740A25F0F8D5
:1005A800E6F51CE52475F00A84240AF8E6F51DE54D
:1005B800248031E51A64047040120026E52175F0A4
:1005C8000A84240AF8E6F51BE52175F00A84740A02
:1005D80025F0F8E6F51CE52275F00A84240AF8E609
:1005E800F51DE52275F00A84740A25F0F8E6F51E73
:0A05F8007B007A00791B120509222E
:100003001209571209DC1201DA1207B8E509146064
:0E001300080470F51202C480F012058880EB1C
:0300230002077160
:10077100C0E0C0F0C083C082C0D075D000C000C04E
:1007810001C002C003C004C005C006C00730980CF8
:1007910085991EC298AF991209D4C298D007D00684
:1007A100D005D004D003D002D001D000D0D0D08267
:0707B100D083D0F0D0E0324C
:0908CA00072018060F0808320689
:0509DC00C2B5C2B62205
:0606020025F0FDEC3EFCBA
:060608008C448D45AB0798
:10060E00D2B5E4FDEDC394087480948050227E0030
:10061E007401A805088005C333CE33CED8F9FFEB9D
:10062E00F582EF558224FF92B4D2B6C2B60D80D4B5
:10063E00E4FDEDC394087480948050247E00740110
:10064E00A805088005C333CE33CED8F9FFE5445E46
:10065E00FEE5455F4E24FF92B4D2B6C2B60D80D2EF
:02066E00C2B513
:010670002267
:02067100A907D7
:10067300E4F544F545430101D2B5FBFAAF037E002F
:100683007401A807088005C333CE33CED8F9FFE938
:10069300FDEF5D24FF92B4C2B6D2B60BBB00010AD4
:1006A300EB64084A70D6C2B4E4FAFBD2B6C2B630E1
:1006B300B417AF037E007401A807088005C333CEC7
:1006C30033CED8F94245EE42440BBB00010AEB643A
:0806D300084A70D7C2B5AF451B
:0106DB0022FC
:1001DA00E4FDFC7F8E120608E52075F00A8475F0AE
:1001EA0010A4FFAEF0E52075F00A84EF7F8C1206AA
:1001FA0002E52175F00A8475F010A4FFAEF0E5213E
:10020A0075F00A847C00EF7F88120602E52275F0F9
:10021A000A8475F010A4FFAEF0E52275F00A847C1A
:10022A0000EF25F0FDEC3EFC7F86120608E52375FB
:10023A00F00A8475F010A4FFAEF0E52375F00A8485
:10024A007C00EF25F0FDEC3EFC7F84120608E524D5
:10025A0075F00A8475F010A4FFAEF0E52475F00A73
:10026A00847C00EF25F0FDEC3EFC7F82120608E557
:10027A002575F00A8475F010A4FFAEF0E52575F037
:10028A000A847C00EF25F0FDEC3EFC7F8012060814
:10029A00E52675F00A8475F010A4FFAEF0E5267520
:1002AA00F00A847C00EF25F0FDEC3EFC7F8A120602
:0A02BA00087D807C007F8E0206089C
:1003F0007F8C120671EFC4540F75F00AA4FEEF54FF
:100400000F2EF5207F88120671EFC4540F75F00A85
:10041000A4FEEF540F2EF5217F86120671EFC4540F
:100420000F75F00AA4FEEF540F2EF5227F841206FA
:1004300071EFC4540F75F00AA4FEEF540F2EF5238C
:100440007F82120671EFC4540F75F00AA4FEEF54B8
:100450000F2EF5247F80120671EFC4540F75F00A39
:10046000A4FEEF540F2EF5257F8A120671EFC454B7
:0C0470000F75F00AA4FEEF540F2EF526C5
:01047C00225D
:1009570075985043878053890F438920758BF475A9
:0B0967008DF4C2ABD28ED2ACD2AF2216
:0809D4008F993099FDC29922B0
:040972007F147E0070
:10097600EF1FAC0670011E4C600A7D027CEFDCFEA8
:04098600DDFC80EC28
:01098A00224A
:1007F900E4FB20940E7F14FE1209763094FD120951
:10080900727B0120950B1209723095FD1209727BDA
:100819000220960B1209723096FD1209727B032091
:0F082900970B1209723097FD1209727B04AF030F
:01083800229D
:0609B100C2A58F80D2A751
:0809B7007F027EEFDEFEDFFC93
:0109BF002215
:0A09C000C2A61209B1C2A70209B7CE
:10091B00CFCDCFCECCCE12039B7C007D0A12039B96
:04092B00ED2430FF88
:0A092F00D2A61209B1C2A70209B74F
:10093900AE07EEFB7A0064017004ED148009EB64E4
:0E094900024A7009ED243F4480FF1209C022CB
:10098B007F381209C07F0C1209C07F061209C07F85
:04099B00010209C08C
:0A09CA00AC03120939AF0402092F33
:0608F8008B418A42894396
:1008FE00120939E4FDAB41AA42A9438D82758300EA
:0C090E0012035CFF600612092F0D80E947
:01091A0022BA
:0A087600EF24FFFDEE34FFFC7F0AC3
:080880008E3D8F3E8C3F8D4040
:100888007F017E00E4FBEBC39540E53F6480F8748C
:0E0898008098500AAC3DAD3E1203890B80E8FB
:0108A600222F
:0408D4008A308B31AA
:1008D800120939AA32EAFF7E00D39400748094800A
:0F08E800400D120876AC30AD3112091B1A80E6B4
:0108F70022DE
:040727008B828A83B4
:10072B00120939C3E58364809480400D7F2B120935
:10073B002F85832C85822D80107F2D12092FC3E4EA
:10074B009582F52DE49583F52CAA2BEAFF7E00D339
:10075B00940074809480400D120876AC2CAD2D1251
:05076B00091B1A80E6E5
:010770002266
:0406DC008A358B369A
:1006E000120939AA37EAD39400748094804037EA1B
:1006F00024FFFDE434FFFC7F107E00120880AC353F
:10070000AD36CFCDCFCECCCE12039BEF540FFEC370
:10071000940A74809480EE5004243080022437FFC1
:0607200012092F1A80BF30
:0107260022B0
:040839008A3A8B3B31
:10083D00120939AA3CEAFF7E00D39400748094809B
:10084D004026EF24FFFDEE34FFFC7F02120880AC42
:10085D003AAD3BCFCDCFCECCCE12039BEF5401247E
:08086D0030FF12092F1A80CDA3
:010875002260
:0300000002047D7A
:0C047D00787FE4F6D8FD7581460204C4C7
:10035C00BB010CE58229F582E5833AF583E0225056
:10036C0006E92582F8E622BBFE06E92582F8E222A0
:0D037C00E58229F582E5833AF583E49322BA
:10038900EF8DF0A4A8F0CF8CF0A428CE8DF0A42E88
:02039900FE2242
:10039B00BC000BBE0029EF8DF084FFADF022E4CC46
:1003AB00F875F008EF2FFFEE33FEEC33FCEE9DEC0F
:1003BB00984005FCEE9DFE0FD5F0E9E4CEFD22ED55
:1003CB00F8F5F0EE8420D21CFEADF075F008EF2F9F
:1003DB00FFED33FD4007985006D5F0F222C398FD90
:0503EB000FD5F0EA222D
:10048900020003E493A3F8E493A34003F68001F286
:1004990008DFF48029E493A3F85407240CC8C33374
:1004A900C4540F4420C8834004F456800146F6DF43
:1004B900E4800B01020408102040809008A7E47E24
:1004C900019360BCA3FF543F30E509541FFEE49338
:1004D900A360010ECF54C025E060A840B8E493A3FF
:1004E900FAE493A3F8E493A3C8C582C8CAC583CA2A
:1004F900F0A3C8C582C8CAC583CADFE9DEE780BEE2
:0108D3000024
:00000001FF
