:1005D200100F3F065B4F666D7D077F6F777C395E3C
:1005E20079710323000000021F00000221000002B3
:0305F2000C0000FA
:10000E00AE071FEE600B007E027DEFDDFEDEFC8094
:01001E00EFF2
:01001F0022BE
:0603A5008B2F8A30893124
:1003AB00E4FCECFF7E00C3940474809480505DECFD
:1003BB0014601014601714601E24037022C2A0D2A4
:1003CB00A18004D2A0C2A1D2A2D2A38012D2A0D269
:1003DB00A1C2A2D2A38008D2A0D2A1D2A2C2A3EF63
:1003EB0064014EAB2FAA30A931700B8C82F58312AE
:1003FB0005FF448080088C827583001205FFF4F59D
:0C040B00807F0112000E7580FF0C8096AF
:0104170022C2
:1001FA001206501206C5120684E4F521F5227FE89C
:10020A0012000EC28C1204F2D28CE53975F00A84FF
:10021A00240FF8E6F523E53975F00A84740F25F002
:10022A00F8E6F524E53A75F00A84240FF8E6F52590
:10023A00E53A75F00A84740F25F0F8E6F5267B0096
:10024A007A0079231203A5AF3A7E00C3EF94507463
:10025A008094804012E50D450C700CF5217522053D
:10026A00F51F752001809CD3EF9450EE6480948032
:10027A005091E50D450C708BF521F522F51FF520FF
:02028A00808171
:03002300020026B2
:10002600C0E0C0F0C083C082C0D075D000C000C0A0
:1000360001C002C003C004C005C006C00720980363
:100046000200F5859926750C00750D01C298AF263C
:100056007E00EF6431700DE5206401451F7005F5E3
:1000660021752201EF64324E700DE5206401451FB3
:100076007005F521752203EF64334E700DE520649B
:1000860001451F7005F521752205EF64344E700D8C
:10009600E5206401451F7005F521752206EF6435DC
:1000A6004E700DE5206401451F7005F52175220887
:1000B600EF64364E700DE5206401451F7005F5218D
:1000C600752209EF64374E700DE5206401451F70F7
:1000D60005F52175220AEF64384E700CE52064019F
:1000E600451F7004F50CF50DAF99120003C298D0A8
:1000F60007D006D005D004D003D002D001D000D05E
:0A010600D0D082D083D0F0D0E032D8
:03000B000205519A
:04055100C0E0C0D076
:10055500758A18758CFCE5206401451F7002B2B6DA
:100565000509E50970020508C39522E5089521509E
:1005750004D2A58002C2A5C3E509940AE508940042
:0805850040067508007509002D
:05058D00D0D0D0E032E7
:0905F500072818060F0808320659
:0506D200C2B5C2B62212
:0604180025F0FDEC3EFCA6
:06041E008C358D36AB07A2
:10042400D2B5E4FDEDC394087480948050227E001C
:100434007401A805088005C333CE33CED8F9FFEB89
:10044400F582EF558224FF92B4D2B6C2B60D80D4A1
:10045400E4FDEDC394087480948050247E007401FC
:10046400A805088005C333CE33CED8F9FFE5355E41
:10047400FEE5365F4E24FF92B4D2B6C2B60D80D2EA
:02048400C2B5FF
:010486002253
:02048700A907C3
:10048900E4F537F538430101D2B5FBFAAF037E0035
:100499007401A807088005C333CE33CED8F9FFE924
:1004A900FDEF5D24FF92B4C2B6D2B60BBB00010AC0
:1004B900EB64084A70D6C2B4E4FAFBD2B6C2B630CD
:1004C900B417AF037E007401A807088005C333CEB3
:1004D90033CED8F94238EE42370BBB00010AEB6440
:0804E900084A70D7C2B5AF3814
:0104F10022E8
:10011000E4FDFC7F8E12041EE52875F00A8475F05C
:1001200010A4FFAEF0E52875F00A84EF7F8C12046E
:1001300018E52975F00A8475F010A4FFAEF0E529E2
:1001400075F00A847C00EF7F88120418E52A75F0A8
:100150000A8475F010A4FFAEF0E52A75F00A847CDD
:1001600000EF25F0FDEC3EFC7F8612041EE52B75AA
:10017000F00A8475F010A4FFAEF0E52B75F00A8448
:100180007C00EF25F0FDEC3EFC7F8412041EE52C84
:1001900075F00A8475F010A4FFAEF0E52C75F00A36
:1001A000847C00EF25F0FDEC3EFC7F8212041EE50E
:1001B0002D75F00A8475F010A4FFAEF0E52D75F0F2
:1001C0000A847C00EF25F0FDEC3EFC7F8012041ECB
:1001D000E52E75F00A8475F010A4FFAEF0E52E75DB
:1001E000F00A847C00EF25F0FDEC3EFC7F8A1204CF
:0A01F0001E7D807C007F8E02041E3D
:10028C007F8C120487EFC4540F75F00AA4FEEF5450
:10029C000F2EF5287F88120487EFC4540F75F00ACF
:1002AC00A4FEEF540F2EF5297F86120487EFC45459
:1002BC000F75F00AA4FEEF540F2EF52A7F8412045A
:1002CC0087EFC4540F75F00AA4FEEF540F2EF52BD4
:1002DC007F82120487EFC4540F75F00AA4FEEF540A
:1002EC000F2EF52C7F80120487EFC4540F75F00A83
:1002FC00A4FEEF540F2EF52D7F8A120487EFC45401
:0C030C000F75F00AA4FEEF540F2EF52E22
:0103180022C2
:1006500075985043878053890F438920758BF475B3
:0B0660008DF4C2ABD28ED2ACD2AF2220
:080003008F993099FDC299228A
:04066B007F147E007A
:10066F00EF1FAC0670011E4C600A7D027CEFDCFEB2
:04067F00DDFC80EC32
:010683002254
:10059200E4FB20940E7F14FE12066F3094FD1206C7
:1005A2006B7B0120950B12066B3095FD12066B7B5F
:1005B2000220960B12066B3096FD12066B7B03200F
:0F05C200970B12066B3097FD12066B7B04AF038D
:0105D1002207
:100684005389F0438901758A18758CFCC28DD28C0C
:07069400D2A9D2AFC2B922C6
:10069B00AE071FEE600B007E027DEFDDFEDEFC8001
:0106AB00EF5F
:0106AC00222B
:0706C500D2A47FE802069BAE
:0406D7007F02DFFEC1
:0106DB0022FC
:0406DC007F0BDFFEB3
:0106E00022F7
:0506CC00007F0FDFFEBE
:0106D1002206
:0406E1007F22DFFE97
:0106E50022F2
:0806BC007F367EC7DEFEDFFC85
:0106C4002213
:0F06AD00D2A41206D7C2A41206BCD2A40206DC45
:10062C00E4FEFDEDC3940874809480501430A4FD56
:10063C001206CCEE25E0FE30A4010E20A4FD0D80A8
:03064C00E2AF0614
:01064F002288
:1004F2001206AD20A45830A4FD20A4FD12062C8FB4
:100502002F12062CA90712062CAC0712062CAB07D9
:1005120012062C8F341206DC1206DCE9FFE52F2FBF
:10052200FFE433FEEC7583002FFFE5833EFEEB2FE5
:10053200FFE5833EFEE534B5070EE583B506098582
:0E0542002F3089318C328B3385303A85323937
:010550002288
:03000000020319DF
:0C031900787FE4F6D8FD75813A0203609D
:1005FF00BB010CE58229F582E5833AF583E02250B1
:10060F0006E92582F8E622BBFE06E92582F8E222FA
:0D061F00E58229F582E5833AF583E4932214
:100325000201FAE493A3F8E493A34003F68001F2F3
:1003350008DFF48029E493A3F85407240CC8C333D9
:10034500C4540F4420C8834004F456800146F6DFA8
:10035500E4800B01020408102040809005D2E47E61
:10036500019360BCA3FF543F30E509541FFEE4939D
:10037500A360010ECF54C025E060A840B8E493A364
:10038500FAE493A3F8E493A3C8C582C8CAC583CA8F
:10039500F0A3C8C582C8CAC583CADFE9DEE780BE47
:0105FE0000FC
:00000001FF
