:06020E00012100012202A3
:03001B000201E8F7
:1001E800C0E0C0D00521C3E521940A748094804002
:1001F80003752100E521C395225004D2A18002C2D3
:06020800A1D0D0D0E032CD
:1000030053890F438920758BFF758DFFC28FD28E65
:05001300D2ABD2AF22C8
:0E0266001200037FEC1200AA8E1F8F2080F57D
:10025100EF1FAC0670011E4C600A7D027CEFDCFED4
:04026100DDFC80EC54
:010265002276
:100214000909000A0A0A0A0A0A0A0A0D123F065BB9
:0D0224004F666D7D077F6F004000010801EF
:09027400AE0574092FF8A606225C
:10012000E4F580EF14B40800505490013875F003E2
:10013000A4C58325F0C58373020150020154020156
:100140005802015C0201600201680201700201783C
:10015000D2A4800ED2A48012D2A48016D2A4801A77
:10016000C2A4D2A3D2A28016C2A4D2A3C2A2800EDD
:10017000C2A4C2A3D2A28006C2A4C2A3C2A2741205
:060180002DF8E6F58022D7
:10018600E4F580EF14B40800505490019E75F00316
:10019600A4C58325F0C583730201B60201BA020124
:1001A600BE0201C20201C60201CE0201D60201DE72
:1001B600D2A4800ED2A48012D2A48016D2A4801A11
:1001C600C2A4D2A3D2A28016C2A4D2A3C2A2800E77
:1001D600C2A4C2A3D2A28006C2A4C2A3C2A2758030
:0201E600802275
:1002320074092508F8E6FD7C00AF081201200508C4
:0E024200C3E508940974809480400375080198
:01025000228B
:0200AA00AD07A0
:1000AC00E4F523F524C2B6C2B5FBEBC39408748007
:1000BC00948050237E007480A803088006CEA2E7AB
:1000CC0013CE13D8F8FFEDF582EF558224FF92B4CE
:1000DC00D2B6C2B60B80D3E4FBEBC39410748094FD
:1000EC0080501ED2B6C2B630B7147E80E4A8030886
:1000FC008005CEC313CE13D8F94224EE42230B80D5
:10010C00D8D2B5E523C4F854F0C868FEE524C4542D
:03011C000F48FF8A
:01011F0022BD
:0300000002001EDD
:0C001E00787FE4F6D8FD758124020065AF
:10002A00020266E493A3F8E493A34003F68001F284
:10003A0008DFF48029E493A3F85407240CC8C333D7
:10004A00C4540F4420C8834004F456800146F6DFA6
:10005A00E4800B010204081020408090020EE47E26
:10006A00019360BCA3FF543F30E509541FFEE4939B
:10007A00A360010ECF54C025E060A840B8E493A362
:10008A00FAE493A3F8E493A3C8C582C8CAC583CA8D
:10009A00F0A3C8C582C8CAC583CADFE9DEE780BE45
:0102310000CC
:00000001FF
