:0A06C10054656D3A0048756D3A006B
:10034800041C00000000010E05010F0101100A0243
:100358001A0026020C0000022000190422000000E6
:1003680000043500000000043100000000042C00E7
:100378000000000427000000000413000000000231
:10038800180000011100011200013000012B0001CA
:05039800170001260022
:10027400C28012064F1206DF12000E7FE87E0312C0
:10028400063A1206A4120675D28CD2A9D28ED2AB2B
:10029400D2AF7BFF7A0679C17D017F011205717BA4
:1002A400FF7A0679C67D017F021205717B2E7D08D7
:1002B4007F011206D57B257D077F021206D5C28CED
:1002C400C28E1202ECE51264017002F512D28CD2D5
:1002D4008EE554FB7A00753D027D057F0212054DC3
:0802E400852617E4F52680AA27
:10062400E4FF20B4010F20B5027F0220B6027F034D
:0506340020B7027F0465
:01063900229E
:03000B000204707C
:04047000C0E0C0D058
:10047400758AA4758CFF0509E50970020508C39502
:1004840019E50895185004D2808002C280C3E5099A
:0E04940094E8E5089403400675080075090019
:0504A200D0D0D0E032D3
:03001B00020003DD
:06000300758B00758DDC19
:0100090032C4
:10063A00EF1FAC0670011E4C600A7D027CEFDCFEE7
:04064A00DDFC80EC67
:01064E002289
:0D06B300007F0A7E1B7DD7DDFEDEFCDFFA36
:0106C0002217
:0906DF00D2B77FE87E0302063A5F
:0406F7007F02DFFEA1
:0106FB0022DC
:0406FC007F0BDFFE93
:0107000022D6
:0506F100007F0FDFFE99
:0106F60022E1
:040701007F22DFFE76
:0107050022D1
:0806E8007F367EC7DEFEDFFC59
:0106F00022E7
:0F068600D2B71206F7C2B71206E8D2B70206FCC7
:10052900E4FEFDEDC3940874809480501430B7FD47
:100539001206F1EE25E0FE30B7010E20B7FD0D8061
:03054900E2AF0618
:01054C00228C
:1002EC0012068620B75530B7FD20B7FD1205298FB1
:1002FC0039120529A907120529AC07120529AB07E4
:10030C001205298F3E1206FC1206FCE9FFE5392F77
:10031C00FFE433FEEC7583002FFFE5833EFEEB2FED
:10032C00FFE5833EFEE53EB5070EE583B506098580
:0B033C00393A893B8C3C8B3D853A54DC
:010347002293
:0D000E001205F27FCC1205947F4402059488
:1004D8001205F27FCC1205947FBE12059412050313
:1004E8008F55120503EFFEE555FFFDAC06EC120033
:0B04F800C3E4FBFA7980784102002188
:06069500C2A58F80D2A770
:08069B007F027EEFDEFEDFFCB2
:0106A3002234
:0A06CB00C2A6120695C2A702069B04
:1005B600CFCDCFCECCCE1201857C007D0A1201852F
:0405C600ED2430FFF1
:0A05CA00D2A6120695C2A702069BF6
:1005D400AE07EEFB7A0064017004ED148009EB644D
:0E05E400024A7009ED243F4480FF1206CB222C
:10064F007F381206CB7F0C1206CB7F061206CB7FAC
:04065F00010206CBC3
:0A06D500AC031205D4AF040205CAFD
:060571008B398A3A893B38
:100577001205D4E4FDAB39AA3AA93B8D82758300F5
:0C058700120146FF60061205CA0D80E953
:010593002245
:0A04A700EF24FFFDEE34FFFC7F0A96
:0804B1008E3E8F3F8C408D410F
:1004B9007F017E00E4FBEBC39541E5406480F8745D
:0E04C9008098500AAC3EAD3F1201730B80E8E4
:0104D7002202
:04054D008A3B8B3C1E
:100551001205D4AA3DEAFF7E00D3940074809480F2
:0F056100400D1204A7AC3BAD3C1205B61A80E664
:010570002268
:0403E9008B828A83F6
:1003ED001205D4C3E58364809480400D7F2B1205E4
:1003FD00CA85834785824880107F2D1205CAC3E4C4
:10040D009582F548E49583F547AA46EAFF7E00D329
:10041D00940074809480400D1204A7AC47AD48122F
:05042D0005B61A80E68F
:0104320022A7
:04039E008A4B8B4CAF
:1003A2001205D4AA4DEAD39400748094804037EAAF
:1003B20024FFFDE434FFFC7F107E001204B1AC4B3D
:1003C200AD4CCFCDCFCECCCE120185EF540FFEC3B4
:1003D200940A74809480EE5004243080022437FF03
:0603E2001205CA1A80BFDB
:0103E80022F2
:040433008A508B510F
:100437001205D4AA52EAFF7E00D3940074809480F8
:100447004026EF24FFFDEE34FFFC7F021204B1AC1F
:1004570050AD51CFCDCFCECCCE120185EF54012474
:0804670030FF1205CA1A80CD16
:01046F00226A
:1005F200D2A2C2A27FF7DFFED2A27F20DFFEA2A29A
:09060200E433FE7FF7DFFEAF06D2
:01060B0022CC
:10066300C2A27E04DEFEEF24FF92A27E18DEFED23B
:01067300A2E4
:010674002263
:10060C00C2A27F02DFFED2A27F02DFFEA2A2E433EF
:07061C00FE7F18DFFEAF06B0
:0106230022B4
:02059400AD07B1
:10059600E4FCECC39408748094805013A80474019E
:0F05A600088002C333D8FC5DFF1206630C80E3AC
:0105B5002223
:10050300E4FDFCECC3940874809480501612060C2E
:10051300EF600DA8047401088002C333D8FC4205C0
:050523000C80E0AF05B3
:0105280022B0
:0F06A4005389F0438901758AA4758CFFD2B9225E
:1006750053890F438910E4F58B758DDCD28EC2BB8F
:010685002252
:10001E0002013BEC5D046005E859047003020131F6
:10002E001200FC580460F6EC4860F2EC7004FDFE21
:10003E00FF22C860DB2481C85009C39860025006B5
:10004E000201389850CAF582E9294B4A7005AB82F5
:10005E0002012775F0007C1A7880C3EF9BEE9AEDB3
:10006E0099400DC3EF9BFFEE9AFEED99FDE842F02D
:10007E00DC23ACF0D0E0FFD0E0FED0E0FDAB822080
:10008E00E7101BEB60BAEC2CFCEF33FFEE33FEED0A
:10009E0033FD020113E803F830E705C0F075F000F8
:1000AE00EF2FFFEE33FEED33FD40B830E7C280AAEE
:1000BE0075F020800E75F010800575F0087D007EBD
:1000CE00007F003392D530D5031201DAEC334010A5
:1000DE00EF33FFEE33FEED33FDEC33FCD5F0ED22C6
:0E00EE00E5F0247EA2D513CC92E7CDCEFF2202
:1000FC00E9D2E7C933E833F892D5EDD2E7CD33EC4A
:07010C0033FC5002B2D522C2
:10011300EC30E7100FBF000C0EBE00080DBD00044D
:100123000BEB6014A2D5EB13FCED92E7FD2274FFF9
:10013300FCFDFEFF22E480F8A2D574FF13FC7D8052
:03014300E480EF66
:030000000201E812
:0C01E800787FE4F6D8FD75815502022FE7
:10014600BB010CE58229F582E5833AF583E022506E
:1001560006E92582F8E622BBFE06E92582F8E222B8
:0D016600E58229F582E5833AF583E49322D2
:10017300EF8DF0A4A8F0CF8CF0A428CE8DF0A42EA0
:02018300FE225A
:10018500BC000BBE0029EF8DF084FFADF022E4CC5E
:10019500F875F008EF2FFFEE33FEEC33FCEE9DEC27
:1001A500984005FCEE9DFE0FD5F0E9E4CEFD22ED6D
:1001B500F8F5F0EE8420D21CFEADF075F008EF2FB7
:1001C500FFED33FD4007985006D5F0F222C398FDA8
:0501D5000FD5F0EA2245
:0E01DA00C3E49FFFE49EFEE49DFDE49CFC2236
:1001F400020274E493A3F8E493A34003F68001F2AB
:1002040008DFF48029E493A3F85407240CC8C3330B
:10021400C4540F4420C8834004F456800146F6DFDA
:10022400E4800B0102040810204080900348E47E1F
:10023400019360BCA3FF543F30E509541FFEE493CF
:10024400A360010ECF54C025E060A840B8E493A396
:10025400FAE493A3F8E493A3C8C582C8CAC583CAC1
:10026400F0A3C8C582C8CAC583CADFE9DEE780BE79
:01039D00005F
:00000001FF
