:10092F0020004F55545055543A00202020202020AD
:10093F00002B002D002A002F00204552524F52004D
:10096D0002380000023000000236000002160000BE
:08097D00021400000212000048
:0C05FA00E53525E02424F8A60608A60735
:100606007BFF7A09792F7D107F0112090CE53525CC
:10061600E02424F8E6FA08E6FBD39409EA64809419
:1006260080500A753E017D087F021208E8E53525EF
:10063600E02424F8E6FA08E6FBD39409EA648094F9
:10064600804015D3EB9463EA64809480500A753E2B
:10065600027D087F021208E8E53525E02424F8E645
:10066600FA08E6FBD39463EA648094804015D3EBE2
:1006760094E7EA64809483500A753E037D087F02FE
:040686001208E8224C
:10071600D3E52F9409E52E64809480500E753E0132
:10072600AB2FAA2E7D017F011208E8D3E52F94098D
:10073600E52E64809480401BD3E52F9463E52E64F8
:10074600809480500E753E02AB2FAA2E7D017F014C
:100756001208E8D3E52F9463E52E64809480401B4D
:10076600D3E52F94E7E52E64809483500E753E03FF
:0C077600AB2FAA2E7D017F011208E822A3
:10078200D3E52F9409E52E64809480500E753E01C6
:10079200AB2FAA2E7D047F011208E8D3E52F94091E
:1007A200E52E64809480401BD3E52F9463E52E648C
:1007B200809480500E753E02AB2FAA2E7D047F01DD
:1007C2001208E8D3E52F9463E52E64809480401BE1
:1007D200D3E52F94E7E52E64809483500E753E0393
:0C07E200AB2FAA2E7D047F011208E82234
:1000030012099B7BFF7A0979317D017F0212090C6A
:100013001203A77518008F19E519451860F2D3E587
:1000230019940AE51864809480500302035D7512E5
:1000330000751301E53925E02424F8A62E08A62F20
:100043000539E53970020538E4F52EF52F7BFF7A83
:100053000979397D077F0112090CE519640B4518ED
:10006300701C740D2537F8762B7BFF7A0979407D58
:10007300037F0112090C0537E53770020536E519D0
:10008300640C4518701C740D2537F8762D7BFF7AA8
:100093000979427D037F0112090C0537E5377002A8
:1000A3000536E519640D4518701C740D2537F8766F
:1000B3002A7BFF7A0979447D037F0112090C0537F6
:1000C300E53770020536E519640E4518701C740D8A
:1000D3002537F8762F7BFF7A0979467D037F011256
:1000E300090C0537E53770020536E519640F451825
:1000F300600302030EF532F533F534753501C3E5BC
:10010300359539E5386480F8E53464809840030216
:10011300023B740D2533F8E6FFB42F047E01800201
:100123007E00EFB42A047F0180027F00EF4E70034C
:10013300020228740D2533F8E6FFAE1574082EF875
:10014300A607AB35EB25E02424F8E6FC08E6FDE53D
:100153001725E0241AF8A60408A60574082EF8E665
:10016300642A704AAF35EF25E02422F8E6FC08E65E
:10017300FDEF25E02424F8E6FE08E6FF12055DAD59
:1001830017ED25E0241AF8A60608A607ED25E024B6
:100193001AF8E6FE08E6FFAD35ED25E02424F8A6BF
:1001A3000608A607ED25E02422F8E4F608F674080D
:1001B3002515F8E6642F7066EB25E02424F8E6FEA7
:1001C30008E64E700F7BFF7A0979487D087F02129B
:1001D300090C8027AF35EF25E02424F8E6FC08E678
:1001E300FDEF25E02422F8E6FE08E6FF1205C4E54C
:1001F3001725E0241AF8A60608A607E51725E02424
:100203001AF8E6FE08E6FFAD35ED25E02424F8A64E
:100213000608A607ED25E02422F8E4F608F6740D97
:100223002533F8762B0533E533700205320535E5C2
:100233003570020534020101E4F532F533F5347506
:100243003501C3E5359539E5386480F8E5346480D4
:1002530098400302030E740D2533F8E6B42B1EAF4A
:1002630035EF25E02422F8E6FC08E6FDEF25E0243F
:1002730024F808ED26F618EC36F6120606740D255A
:1002830033F8E6B42D20AF35EF25E02424F8E6FC5F
:1002930008E6FDEF25E02422F8E6FE08E6C39DFF0D
:1002A300EE9CFE1205FA740D2533F8E6B42A22AD4E
:1002B30035ED25E02424F8C000E6FE08E6FFED2531
:1002C300E02422F8E6FC08E6FD12055DD0001206E4
:1002D30001740D2533F8E6B42F1EAF35EF25E02466
:1002E30024F8E6FC08E6FDEF25E02422F8E6FE0804
:1002F300E6FF1205C41205FA0533E5337002053231
:100303000535E53570020534020245E519641045EB
:10031300187047F50DF524F525F538F539F536F55B
:1003230037F534F535F532F533F516F517F514F5DC
:1003330015F512F513F5127BFF7A0979397D017FE3
:100343000112090CE4F52EF52FF52EF52F7BFF7A1C
:100353000979397D087F0212090CD3E519940AE55E
:1003630018648094804003020013AE2EAF2F7C00EC
:100373007D0A12055D8E2E8F2FAE18AF191205C49C
:10038300ED252FF52FEC352EF52EE51345127003D1
:10039300120716E5136401451260030200131207E6
:0403A30082020013BF
:10098600EF1FAC0670011E4C600A7D027CEFDCFE98
:04099600DDFC80EC18
:01099A00223A
:0609C200C2A58F80D2A740
:0809C8007F027EEFDEFEDFFC82
:0109D0002204
:0A09D100C2A61209C2C2A70209C89B
:10094F00CFCDCFCECCCE12056F7C007D0A12056FB6
:04095F00ED2430FF54
:0A096300D2A61209C2C2A70209C8F9
:10099B007F381209D17F0C1209D17F061209D17F42
:0409AB00010209D16B
:1009AF00EF64017004ED148003ED243F4480FF12C7
:0309BF0009D12239
:0A09DB00AC031209AFAF0402096378
:06090C008B3A8A3B893C96
:100912001209AFE4FDAB3AAA3BA93C8D8275830074
:0C092200120530FF60061209630D80E929
:01092E0022A6
:0A08B700EF24FFFDEE34FFFC7F0A82
:0808C1008E3F8F408C418D42F7
:1008C9007F017E00E4FBEBC39542E5416480F87447
:0E08D9008098500AAC3FAD4012055D0B80E8E0
:0108E70022EE
:0408E8008A3C8B3D7E
:1008EC001209AFAA3EEAFF7E00D394007480948074
:0F08FC00400D1208B7AC3CAD3D12094F1A80E613
:01090B0022C9
:100839001209AFC3EA64809480400B7F2B120963CD
:100849008A488B49800E7F2D120963C3E49BF549C1
:10085900E49AF548AA47EAFF7E00D394007480948D
:1008690080400D1208B7AC48AD4912094F1A80E60D
:01087900225C
:0407EE008A4C8B4D59
:1007F2001209AFAA4EEAD39400748094804037EA7B
:1008020024FFFDE434FFFC7F107E001208C1AC4CD3
:10081200AD4DCFCDCFCECCCE12056FEF540FFEC370
:10082200940A74809480EE5004243080022437FFAE
:060832001209631A80BFE9
:01083800229D
:04087A008A518B52C2
:10087E001209AFAA53EAFF7E00D3940074809480CD
:10088E004026EF24FFFDEE34FFFC7F021208C1ACC0
:10089E0051AD52CFCDCFCECCCE12056FEF54012439
:0808AE0030FF1209631A80CD2E
:0108B600221F
:1003A700E4F53A7590FFC2932097137F14FE120964
:1003B700863097FD7F147E00120986753A012096D4
:1003C700147F147E001209863096FD7F147E00127A
:1003D7000986753A052095147F147E001209863028
:1003E70095FD7F147E00120986753A092094147FC3
:1003F700147E001209863094FD7F147E0012098650
:10040700753A0D7590FFC2922097147F147E0012E3
:1004170009863097FD7F147E00120986753A0220FF
:1004270096147F147E001209863096FD7F147E0095
:10043700120986753A062095147F147E00120986E4
:100447003095FD7F147E00120986753A0A209414B0
:100457007F147E001209863094FD7F147E001209F6
:1004670086753A0E7590FFC2912097147F147E000F
:100477001209863097FD7F147E00120986753A03AC
:100487002096147F147E001209863096FD7F147E15
:1004970000120986753A072095147F147E00120909
:1004A700863095FD7F147E00120986753A0B2094DD
:1004B700147F147E001209863094FD7F147E00128B
:1004C7000986753A0F7590FFC2902097147F147EA6
:1004D700001209863097FD7F147E00120986753A4F
:1004E700042096147F147E001209863096FD7F142F
:1004F7007E00120986753A082095147F147E001233
:1005070009863095FD7F147E00120986753A0C2006
:1005170094147F147E001209863094FD7F147E00A8
:08052700120986753A10AF3A83
:01052F0022A9
:0300000002068A6B
:0C068A00787FE4F6D8FD7581530206D19C
:10053000BB010CE58229F582E5833AF583E0225080
:1005400006E92582F8E622BBFE06E92582F8E222CA
:0D055000E58229F582E5833AF583E49322E4
:10055D00EF8DF0A4A8F0CF8CF0A428CE8DF0A42EB2
:02056D00FE226C
:10056F00BC000BBE0029EF8DF084FFADF022E4CC70
:10057F00F875F008EF2FFFEE33FEEC33FCEE9DEC39
:10058F00984005FCEE9DFE0FD5F0E9E4CEFD22ED7F
:10059F00F8F5F0EE8420D21CFEADF075F008EF2FC9
:1005AF00FFED33FD4007985006D5F0F222C398FDBA
:0505BF000FD5F0EA2257
:1005C400C2D5EC30E709B2D5E4C39DFDE49CFCEE52
:1005D40030E715B2D5E4C39FFFE49EFE12056FC356
:1005E400E49DFDE49CFC800312056F30D507C3E451
:0605F4009FFFE49EFE22C1
:10069600020003E493A3F8E493A34003F68001F277
:1006A60008DFF48029E493A3F85407240CC8C33365
:1006B600C4540F4420C8834004F456800146F6DF34
:1006C600E4800B010204081020408090096DE47E4E
:1006D600019360BCA3FF543F30E509541FFEE49329
:1006E600A360010ECF54C025E060A840B8E493A3F0
:1006F600FAE493A3F8E493A3C8C582C8CAC583CA1B
:10070600F0A3C8C582C8CAC583CADFE9DEE780BED2
:010985000071
:00000001FF
