:1005D300100F3F065B4F666D7D077F6F777C395E3B
:1005E30079710323000000021F00000221000002B2
:0305F3000C0000F9
:10000E00AE071FEE600B007E027DEFDDFEDEFC8094
:01001E00EFF2
:01001F0022BE
:0603A6008B2F8A30893123
:1003AC00E4FCECFF7E00C3940474809480505DECFC
:1003BC0014601014601714601E24037022C2A0D2A3
:1003CC00A18004D2A0C2A1D2A2D2A38012D2A0D268
:1003DC00A1C2A2D2A38008D2A0D2A1D2A2C2A3EF62
:1003EC0064014EAB2FAA30A931700B8C82F58312AD
:1003FC000600448080088C82758300120600F4F598
:0C040C00807F0112000E7580FF0C8096AE
:0104180022C1
:1001FA001206511206C61206857521007522017F64
:10020A00E812000EC28C1204F3D28CE53975F00A9A
:10021A0084240FF8E6F523E53975F00A84740F256E
:10022A00F0F8E6F524E53A75F00A84240FF8E6F5C5
:10023A0025E53A75F00A84740F25F0F8E6F5267B71
:10024A00007A0079231203A6AF3A7E00C3EF9450D6
:10025A00748094804012E50D450C700CF5217522CE
:10026A0005F51F752001809CD3EF9450EE648094AD
:10027A00805091E50D450C708BF521F522F51FF59F
:03028A0020808150
:03002300020026B2
:10002600C0E0C0F0C083C082C0D075D000C000C0A0
:1000360001C002C003C004C005C006C00720980363
:100046000200F5859926750C00750D01C298AF263C
:100056007E00EF6431700DE5206401451F7005F5E3
:1000660021752201EF64324E700DE5206401451FB3
:100076007005F521752203EF64334E700DE520649B
:1000860001451F7005F521752205EF64344E700D8C
:10009600E5206401451F7005F521752206EF6435DC
:1000A6004E700DE5206401451F7005F52175220887
:1000B600EF64364E700DE5206401451F7005F5218D
:1000C600752209EF64374E700DE5206401451F70F7
:1000D60005F52175220AEF64384E700CE52064019F
:1000E600451F7004F50CF50DAF99120003C298D0A8
:1000F60007D006D005D004D003D002D001D000D05E
:0A010600D0D082D083D0F0D0E032D8
:03000B0002055299
:04055200C0E0C0D075
:10055600758A18758CFCE5206401451F7002B2B6D9
:100566000509E50970020508C39522E5089521509D
:1005760004D2A58002C2A5C3E509940AE508940041
:0805860040067508007509002C
:05058E00D0D0D0E032E6
:0905F600072818060F0808320658
:0506D300C2B5C2B62211
:0604190025F0FDEC3EFCA5
:06041F008C358D36AB07A1
:10042500D2B5E4FDEDC394087480948050227E001B
:100435007401A805088005C333CE33CED8F9FFEB88
:10044500F582EF558224FF92B4D2B6C2B60D80D4A0
:10045500E4FDEDC394087480948050247E007401FB
:10046500A805088005C333CE33CED8F9FFE5355E40
:10047500FEE5365F4E24FF92B4D2B6C2B60D80D2E9
:02048500C2B5FE
:010487002252
:02048800A907C2
:10048A00E4F537F538430101D2B5FBFAAF037E0034
:10049A007401A807088005C333CE33CED8F9FFE923
:1004AA00FDEF5D24FF92B4C2B6D2B60BBB00010ABF
:1004BA00EB64084A70D6C2B4E4FAFBD2B6C2B630CC
:1004CA00B417AF037E007401A807088005C333CEB2
:1004DA0033CED8F94238EE42370BBB00010AEB643F
:0804EA00084A70D7C2B5AF3813
:0104F20022E7
:10011000E4FDFC7F8E12041FE52875F00A8475F05B
:1001200010A4FFAEF0E52875F00A84EF7F8C12046E
:1001300019E52975F00A8475F010A4FFAEF0E529E1
:1001400075F00A847C00EF7F88120419E52A75F0A7
:100150000A8475F010A4FFAEF0E52A75F00A847CDD
:1001600000EF25F0FDEC3EFC7F8612041FE52B75A9
:10017000F00A8475F010A4FFAEF0E52B75F00A8448
:100180007C00EF25F0FDEC3EFC7F8412041FE52C83
:1001900075F00A8475F010A4FFAEF0E52C75F00A36
:1001A000847C00EF25F0FDEC3EFC7F8212041FE50D
:1001B0002D75F00A8475F010A4FFAEF0E52D75F0F2
:1001C0000A847C00EF25F0FDEC3EFC7F8012041FCA
:1001D000E52E75F00A8475F010A4FFAEF0E52E75DB
:1001E000F00A847C00EF25F0FDEC3EFC7F8A1204CF
:0A01F0001F7D807C007F8E02041F3B
:10028D007F8C120488EFC4540F75F00AA4FEEF544E
:10029D000F2EF5287F88120488EFC4540F75F00ACD
:1002AD00A4FEEF540F2EF5297F86120488EFC45457
:1002BD000F75F00AA4FEEF540F2EF52A7F84120459
:1002CD0088EFC4540F75F00AA4FEEF540F2EF52BD2
:1002DD007F82120488EFC4540F75F00AA4FEEF5408
:1002ED000F2EF52C7F80120488EFC4540F75F00A81
:1002FD00A4FEEF540F2EF52D7F8A120488EFC454FF
:0C030D000F75F00AA4FEEF540F2EF52E21
:0103190022C1
:1006510075985043878053890F438920758BF475B2
:0B0661008DF4C2ABD28ED2ACD2AF221F
:080003008F993099FDC299228A
:04066C007F147E0079
:10067000EF1FAC0670011E4C600A7D027CEFDCFEB1
:04068000DDFC80EC31
:010684002253
:10059300E4FB20940E7F14FE1206703094FD1206C5
:1005A3006C7B0120950B12066C3095FD12066C7B5B
:1005B3000220960B12066C3096FD12066C7B03200C
:0F05C300970B12066C3097FD12066C7B04AF038A
:0105D2002206
:100685005389F0438901758A18758CFCC28DD28C0B
:07069500D2A9D2AFC2B922C5
:10069C00AE071FEE600B007E027DEFDDFEDEFC8000
:0106AC00EF5E
:0106AD00222A
:0706C600D2A47FE802069CAC
:0406D8007F02DFFEC0
:0106DC0022FB
:0406DD007F0BDFFEB2
:0106E10022F6
:0506CD00007F0FDFFEBD
:0106D2002205
:0406E2007F22DFFE96
:0106E60022F1
:0806BD007F367EC7DEFEDFFC84
:0106C5002212
:0F06AE00D2A41206D8C2A41206BDD2A40206DD41
:10062D00E4FEFDEDC3940874809480501430A4FD55
:10063D001206CDEE25E0FE30A4010E20A4FD0D80A6
:03064D00E2AF0613
:010650002287
:1004F3001206AE20A45830A4FD20A4FD12062D8FB1
:100503002F12062DA90712062DAC0712062DAB07D5
:1005130012062D8F341206DD1206DDE9FFE52F2FBB
:10052300FFE433FEEC7583002FFFE5833EFEEB2FE4
:10053300FFE5833EFEE534B5070EE583B506098581
:0E0543002F3089318C328B3385303A85323936
:010551002287
:0300000002031ADE
:0C031A00787FE4F6D8FD75813A0203619B
:10060000BB010CE58229F582E5833AF583E02250AF
:1006100006E92582F8E622BBFE06E92582F8E222F9
:0D062000E58229F582E5833AF583E4932213
:100326000201FAE493A3F8E493A34003F68001F2F2
:1003360008DFF48029E493A3F85407240CC8C333D8
:10034600C4540F4420C8834004F456800146F6DFA7
:10035600E4800B01020408102040809005D3E47E5F
:10036600019360BCA3FF543F30E509541FFEE4939C
:10037600A360010ECF54C025E060A840B8E493A363
:10038600FAE493A3F8E493A3C8C582C8CAC583CA8E
:10039600F0A3C8C582C8CAC583CADFE9DEE780BE46
:0105FF0000FB
:00000001FF
