:1009C00041000FFE4100000046000780FFFFFFFFCF
:0A09D000FF460001DFEFF7FBFDFE1C
:1009A000D3EF9400EE6480948040147D1C7C00EDB5
:0F09B0001D70011CED4C70F7EF1F70E41E80E10D
:0109BF002215
:0300030002096D82
:10096D00C0E0C083C082C0D075D000C004C005C037
:10097D0006C0077F147E001209A09000007401F0DC
:10098D00C289D007D006D005D004D0D0D082D08374
:03099D00D0E03275
:10091700D288D2AFD2A8900000E0B401F9E4F090F9
:10092700000FE0FF780108800123D8FD90000FF049
:1009370090000DE0FEA3E0FF7C007D0612088C749A
:10094700012DF58274003CF583E0F5907580807F7A
:10095700147E001209A090000EE004F070B8900019
:060967000DE004F080B079
:03000000020800F3
:0C080000787FE4F6D8FD758107020847F8
:10088C00C2D5EC30E709B2D5E4C39DFDE49CFCEE87
:10089C0030E715B2D5E4C39FFFE49EFE1208C2C335
:1008AC00E49DFDE49CFC80031208C230D507C3E430
:0608BC009FFFE49EFE22F6
:10080C00020917E493A3F8E493A34003F68001F2E2
:10081C0008DFF48029E493A3F85407240CC8C333ED
:10082C00C4540F4420C8834004F456800146F6DFBC
:10083C00E4800B01020408102040809009C0E47E83
:10084C00019360BCA3FF543F30E509541FFEE493B1
:10085C00A360010ECF54C025E060A840B8E493A378
:10086C00FAE493A3F8E493A3C8C582C8CAC583CAA3
:10087C00F0A3C8C582C8CAC583CADFE9DEE780BE5B
:0109DA00001C
:1008C200BC000BBE0029EF8DF084FFADF022E4CC1A
:1008D200F875F008EF2FFFEE33FEEC33FCEE9DECE3
:1008E200984005FCEE9DFE0FD5F0E9E4CEFD22ED29
:1008F200F8F5F0EE8420D21CFEADF075F008EF2F73
:10090200FFED33FD4007985006D5F0F222C398FD63
:050912000FD5F0EA2200
:00000001FF
