:0602C60048656C6C6F003E
:100097001202707B417D017F011202BC7BFF7A0255
:1000A70079C67D037F0112021A750C027B427A0022
:1000B7007D097F011201F6750C027BA87AFF7D0C82
:1000C7007F01120147750C027BA57A007D017F0233
:1000D7001200FC750C087BA57A007D047F021201D3
:1000E700887BDF7D0D7F021202BC7B437D0E7F0282
:0500F7001202BC80FEB6
:06029700C2A58F80D2A772
:08029D007F027EEFDEFEDFFCB4
:0102A5002236
:0A02B200C2A6120297C2A702029D25
:10023D00CFCDCFCECCCE1200427C007D0A12004233
:04024D00ED2430FF6D
:0A025100D2A6120297C2A702029D76
:100270007F381202B27F0C1202B27F061202B27FE6
:04028000010202B2C3
:10028400EF64017004ED148003ED243F4480FF12F9
:0302940002B22291
:0A02BC00AC03120284AF04020251E9
:06021A008B088A09890A25
:10022000120284E4FDAB08AA09A90A8D8275830035
:0C023000120003FF60061202510D80E96D
:01023C00229F
:0A01C500EF24FFFDEE34FFFC7F0A7B
:0801CF008E0F8F108C118D12B0
:1001D7007F017E00E4FBEBC39512E5116480F874A0
:0E01E7008098500AAC0FAD101200300B80E86B
:0101F50022E7
:0401F6008A0A8B0BDB
:1001FA00120284AA0CEAFF7E00D3940074809480D1
:0F020A00400D1201C5AC0AAD0B12023D1A80E681
:0102190022C2
:10014700120284C3EA64809480400B7F2B12025111
:100157008A0D8B0E800E7F2D120251C3E49BF50E84
:10016700E49AF50DAA0CEAFF7E00D39400748094FC
:1001770080400D1201C5AC0DAD0E12023D1A80E68E
:010187002255
:0400FC008A0A8B0BD6
:10010000120284AA0CEAD39400748094804037EAE7
:1001100024FFFDE434FFFC7F107E001201CFAC0A07
:10012000AD0BCFCDCFCECCCE120042EF540FFEC3DD
:10013000940A74809480EE5004243080022437FFA7
:060140001202511A80BFFB
:010146002296
:040188008A0A8B0B49
:10018C00120284AA0CEAFF7E00D39400748094803F
:10019C004026EF24FFFDEE34FFFC7F021201CFACB2
:1001AC000AAD0BCFCDCFCECCCE120042EF540124F2
:0801BC0030FF1202511A80CD40
:0101C4002218
:10025B00EF1FAC0670011E4C600A7D027CEFDCFECA
:04026B00DDFC80EC4A
:01026F00226C
:030000000202A653
:0C02A600787FE4F6D8FD75811202009705
:10000300BB010CE58229F582E5833AF583E02250B2
:1000130006E92582F8E622BBFE06E92582F8E222FC
:0D002300E58229F582E5833AF583E4932216
:10003000EF8DF0A4A8F0CF8CF0A428CE8DF0A42EE4
:02004000FE229E
:10004200BC000BBE0029EF8DF084FFADF022E4CCA2
:10005200F875F008EF2FFFEE33FEEC33FCEE9DEC6B
:10006200984005FCEE9DFE0FD5F0E9E4CEFD22EDB1
:10007200F8F5F0EE8420D21CFEADF075F008EF2FFB
:10008200FFED33FD4007985006D5F0F222C398FDEC
:050092000FD5F0EA2289
:00000001FF
