:03000000020026D5
:0C002600787FE4F6D8FD75811402006DAF
:07015B000210000001140076
:1000030043878075985053890F438920758BF37507
:0B0013008DF3C2ABD28ED2AFD2AC2274
:080153008F993099FDC2992239
:03002300020107D0
:10010700C0E0C0F0C0D075D008309839C298AF149D
:10011700051474122FF8A699E51464027027E512E6
:10012700FE7C00E42513F511EC3EF510E51124FEE5
:10013700FFE51034FFFE7D031200B28E108F1112FF
:0C0147000153751400D0D0D0F0D0E0328D
:05001E0012000380FE4A
:1000320002001EE493A3F8E493A34003F68001F2C6
:1000420008DFF48029E493A3F85407240CC8C333CF
:10005200C4540F4420C8834004F456800146F6DF9E
:10006200E4800B010204081020408090015BE47ED2
:10007200019360BCA3FF543F30E509541FFEE49393
:10008200A360010ECF54C025E060A840B8E493A35A
:10009200FAE493A3F8E493A3C8C582C8CAC583CA85
:1000A200F0A3C8C582C8CAC583CADFE9DEE780BE3D
:01016200009C
:1000B200BC000BBE0029EF8DF084FFADF022E4CC32
:1000C200F875F008EF2FFFEE33FEEC33FCEE9DECFB
:1000D200984005FCEE9DFE0FD5F0E9E4CEFD22ED41
:1000E200F8F5F0EE8420D21CFEADF075F008EF2F8B
:1000F200FFED33FD4007985006D5F0F222C398FD7C
:050102000FD5F0EA2218
:00000001FF
