:1009920041000CFE4100000046000D8986C7C7C019
:0A09A200FF460002DFEFF7FBFDFE49
:10097200D3EF9400EE6480948040147D1C7C00EDE3
:0F0982001D70011CED4C70F7EF1F70E41E80E13B
:010991002243
:0300030002093FB0
:10093F00C0E0C083C082C0D075D000C004C005C065
:10094F0006C0077F147E001209729000007401F038
:10095F00C289D007D006D005D004D0D0D082D083A2
:03096F00D0E032A3
:10080000D288D2AFD2A8900000E06401704EF09080
:100810000012E0900001F090000AE4F0A37405F0EB
:1008200090000AE0FEA3E0FF240CF58274003EF580
:1008300083E0FD740D2FF58274003EF583EDF0909A
:10084000000BE024FFF090000AE034FFF0E07002BB
:10085000A3E070CC900001E090000DF0E49000085F
:10086000F0A3F0C3900009E09406900008E06480D3
:1008700094805092E0FEA3E0FF240DF58274003EC8
:10088000F583E0F58074022FF58274003EF583E075
:10089000F5907F017E001209727580FF7F097E004E
:1008A000120972900009E004F070B8900008E004AA
:0308B000F080B025
:030000000208B340
:0C08B300787FE4F6D8FD7581070208FA92
:1008BF00020800E493A3F8E493A34003F68001F247
:1008CF0008DFF48029E493A3F85407240CC8C3333A
:1008DF00C4540F4420C8834004F456800146F6DF09
:1008EF00E4800B0102040810204080900992E47EFE
:1008FF00019360BCA3FF543F30E509541FFEE493FE
:10090F00A360010ECF54C025E060A840B8E493A3C4
:10091F00FAE493A3F8E493A3C8C582C8CAC583CAEF
:10092F00F0A3C8C582C8CAC583CADFE9DEE780BEA7
:0109AC00004A
:00000001FF
